{
  "contractName": "BREE_STAKE_FARM",
  "abi": [
    {
      "inputs": [
        {
          "internalType": "address",
          "name": "_tokenAddress",
          "type": "address"
        }
      ],
      "payable": false,
      "stateMutability": "nonpayable",
      "type": "constructor"
    },
    {
      "anonymous": false,
      "inputs": [
        {
          "indexed": true,
          "internalType": "address",
          "name": "_tokenAddress",
          "type": "address"
        },
        {
          "indexed": true,
          "internalType": "uint256",
          "name": "tokens",
          "type": "uint256"
        }
      ],
      "name": "AddedToExistingFarm",
      "type": "event"
    },
    {
      "anonymous": false,
      "inputs": [
        {
          "indexed": true,
          "internalType": "address",
          "name": "staker",
          "type": "address"
        },
        {
          "indexed": true,
          "internalType": "uint256",
          "name": "tokens",
          "type": "uint256"
        }
      ],
      "name": "AddedToExistingStake",
      "type": "event"
    },
    {
      "anonymous": false,
      "inputs": [
        {
          "indexed": true,
          "internalType": "address",
          "name": "tokenAddress",
          "type": "address"
        },
        {
          "indexed": true,
          "internalType": "uint256",
          "name": "newAPY",
          "type": "uint256"
        }
      ],
      "name": "FarmingRateChanged",
      "type": "event"
    },
    {
      "anonymous": false,
      "inputs": [
        {
          "indexed": true,
          "internalType": "address",
          "name": "_tokenAddress",
          "type": "address"
        },
        {
          "indexed": true,
          "internalType": "uint256",
          "name": "_amount",
          "type": "uint256"
        }
      ],
      "name": "FarmingStarted",
      "type": "event"
    },
    {
      "anonymous": false,
      "inputs": [
        {
          "indexed": true,
          "internalType": "address",
          "name": "governanceAddress",
          "type": "address"
        }
      ],
      "name": "GovernanceSet",
      "type": "event"
    },
    {
      "anonymous": false,
      "inputs": [
        {
          "indexed": true,
          "internalType": "address",
          "name": "_from",
          "type": "address"
        },
        {
          "indexed": true,
          "internalType": "address",
          "name": "_to",
          "type": "address"
        }
      ],
      "name": "OwnershipTransferred",
      "type": "event"
    },
    {
      "anonymous": false,
      "inputs": [
        {
          "indexed": true,
          "internalType": "address",
          "name": "claimer",
          "type": "address"
        },
        {
          "indexed": true,
          "internalType": "uint256",
          "name": "reward",
          "type": "uint256"
        }
      ],
      "name": "RewardClaimed",
      "type": "event"
    },
    {
      "anonymous": false,
      "inputs": [
        {
          "indexed": true,
          "internalType": "address",
          "name": "staker",
          "type": "address"
        },
        {
          "indexed": true,
          "internalType": "uint256",
          "name": "tokens",
          "type": "uint256"
        }
      ],
      "name": "Staked",
      "type": "event"
    },
    {
      "anonymous": false,
      "inputs": [
        {
          "indexed": true,
          "internalType": "uint256",
          "name": "newAPY",
          "type": "uint256"
        }
      ],
      "name": "StakingRateChanged",
      "type": "event"
    },
    {
      "anonymous": false,
      "inputs": [
        {
          "indexed": true,
          "internalType": "address",
          "name": "tokenAddress",
          "type": "address"
        },
        {
          "indexed": true,
          "internalType": "uint256",
          "name": "APY",
          "type": "uint256"
        }
      ],
      "name": "TokenAdded",
      "type": "event"
    },
    {
      "anonymous": false,
      "inputs": [
        {
          "indexed": true,
          "internalType": "address",
          "name": "tokenAddress",
          "type": "address"
        },
        {
          "indexed": true,
          "internalType": "uint256",
          "name": "APY",
          "type": "uint256"
        }
      ],
      "name": "TokenRemoved",
      "type": "event"
    },
    {
      "anonymous": false,
      "inputs": [
        {
          "indexed": true,
          "internalType": "address",
          "name": "claimer",
          "type": "address"
        },
        {
          "indexed": true,
          "internalType": "uint256",
          "name": "stakedTokens",
          "type": "uint256"
        }
      ],
      "name": "TokensClaimed",
      "type": "event"
    },
    {
      "anonymous": false,
      "inputs": [
        {
          "indexed": true,
          "internalType": "address",
          "name": "_tokenAddress",
          "type": "address"
        },
        {
          "indexed": true,
          "internalType": "uint256",
          "name": "_yield",
          "type": "uint256"
        }
      ],
      "name": "YieldCollected",
      "type": "event"
    },
    {
      "anonymous": false,
      "inputs": [
        {
          "indexed": true,
          "internalType": "uint256",
          "name": "yieldCollectionFee",
          "type": "uint256"
        }
      ],
      "name": "YieldCollectionFeeChanged",
      "type": "event"
    },
    {
      "constant": true,
      "inputs": [],
      "name": "bree",
      "outputs": [
        {
          "internalType": "contract Token",
          "name": "",
          "type": "address"
        }
      ],
      "payable": false,
      "stateMutability": "view",
      "type": "function"
    },
    {
      "constant": true,
      "inputs": [],
      "name": "minStakeLimit",
      "outputs": [
        {
          "internalType": "uint256",
          "name": "",
          "type": "uint256"
        }
      ],
      "payable": false,
      "stateMutability": "view",
      "type": "function"
    },
    {
      "constant": true,
      "inputs": [],
      "name": "owner",
      "outputs": [
        {
          "internalType": "address payable",
          "name": "",
          "type": "address"
        }
      ],
      "payable": false,
      "stateMutability": "view",
      "type": "function"
    },
    {
      "constant": true,
      "inputs": [],
      "name": "stakeClaimFee",
      "outputs": [
        {
          "internalType": "uint256",
          "name": "",
          "type": "uint256"
        }
      ],
      "payable": false,
      "stateMutability": "view",
      "type": "function"
    },
    {
      "constant": true,
      "inputs": [],
      "name": "stakingPeriod",
      "outputs": [
        {
          "internalType": "uint256",
          "name": "",
          "type": "uint256"
        }
      ],
      "payable": false,
      "stateMutability": "view",
      "type": "function"
    },
    {
      "constant": true,
      "inputs": [
        {
          "internalType": "address",
          "name": "",
          "type": "address"
        }
      ],
      "name": "tokens",
      "outputs": [
        {
          "internalType": "bool",
          "name": "exists",
          "type": "bool"
        },
        {
          "internalType": "uint256",
          "name": "rate",
          "type": "uint256"
        }
      ],
      "payable": false,
      "stateMutability": "view",
      "type": "function"
    },
    {
      "constant": true,
      "inputs": [],
      "name": "totalRewards",
      "outputs": [
        {
          "internalType": "uint256",
          "name": "",
          "type": "uint256"
        }
      ],
      "payable": false,
      "stateMutability": "view",
      "type": "function"
    },
    {
      "constant": true,
      "inputs": [],
      "name": "totalYield",
      "outputs": [
        {
          "internalType": "uint256",
          "name": "",
          "type": "uint256"
        }
      ],
      "payable": false,
      "stateMutability": "view",
      "type": "function"
    },
    {
      "constant": false,
      "inputs": [
        {
          "internalType": "address payable",
          "name": "_newOwner",
          "type": "address"
        }
      ],
      "name": "transferOwnership",
      "outputs": [],
      "payable": false,
      "stateMutability": "nonpayable",
      "type": "function"
    },
    {
      "constant": true,
      "inputs": [],
      "name": "yieldCollectionFee",
      "outputs": [
        {
          "internalType": "uint256",
          "name": "",
          "type": "uint256"
        }
      ],
      "payable": false,
      "stateMutability": "view",
      "type": "function"
    },
    {
      "constant": false,
      "inputs": [
        {
          "internalType": "address",
          "name": "_tokenAddress",
          "type": "address"
        },
        {
          "internalType": "uint256",
          "name": "_amount",
          "type": "uint256"
        }
      ],
      "name": "Farm",
      "outputs": [],
      "payable": false,
      "stateMutability": "nonpayable",
      "type": "function"
    },
    {
      "constant": false,
      "inputs": [
        {
          "internalType": "address",
          "name": "_tokenAddress",
          "type": "address"
        },
        {
          "internalType": "uint256",
          "name": "_amount",
          "type": "uint256"
        }
      ],
      "name": "AddToFarm",
      "outputs": [],
      "payable": false,
      "stateMutability": "nonpayable",
      "type": "function"
    },
    {
      "constant": false,
      "inputs": [
        {
          "internalType": "address",
          "name": "_tokenAddress",
          "type": "address"
        }
      ],
      "name": "Yield",
      "outputs": [],
      "payable": true,
      "stateMutability": "payable",
      "type": "function"
    },
    {
      "constant": false,
      "inputs": [
        {
          "internalType": "address",
          "name": "_tokenAddress",
          "type": "address"
        },
        {
          "internalType": "uint256",
          "name": "_amount",
          "type": "uint256"
        }
      ],
      "name": "WithdrawFarmedTokens",
      "outputs": [],
      "payable": false,
      "stateMutability": "nonpayable",
      "type": "function"
    },
    {
      "constant": false,
      "inputs": [
        {
          "internalType": "uint256",
          "name": "_amount",
          "type": "uint256"
        }
      ],
      "name": "Stake",
      "outputs": [],
      "payable": false,
      "stateMutability": "nonpayable",
      "type": "function"
    },
    {
      "constant": false,
      "inputs": [
        {
          "internalType": "uint256",
          "name": "_amount",
          "type": "uint256"
        }
      ],
      "name": "AddToStake",
      "outputs": [],
      "payable": false,
      "stateMutability": "nonpayable",
      "type": "function"
    },
    {
      "constant": false,
      "inputs": [],
      "name": "ClaimStakedTokens",
      "outputs": [],
      "payable": false,
      "stateMutability": "nonpayable",
      "type": "function"
    },
    {
      "constant": false,
      "inputs": [],
      "name": "ClaimReward",
      "outputs": [],
      "payable": true,
      "stateMutability": "payable",
      "type": "function"
    },
    {
      "constant": true,
      "inputs": [
        {
          "internalType": "address",
          "name": "_tokenAddress",
          "type": "address"
        },
        {
          "internalType": "address",
          "name": "_caller",
          "type": "address"
        }
      ],
      "name": "PendingYield",
      "outputs": [
        {
          "internalType": "uint256",
          "name": "_pendingRewardWeis",
          "type": "uint256"
        }
      ],
      "payable": false,
      "stateMutability": "view",
      "type": "function"
    },
    {
      "constant": true,
      "inputs": [
        {
          "internalType": "address",
          "name": "_tokenAddress",
          "type": "address"
        },
        {
          "internalType": "address",
          "name": "_user",
          "type": "address"
        }
      ],
      "name": "ActiveFarmDeposit",
      "outputs": [
        {
          "internalType": "uint256",
          "name": "_activeDeposit",
          "type": "uint256"
        }
      ],
      "payable": false,
      "stateMutability": "view",
      "type": "function"
    },
    {
      "constant": true,
      "inputs": [
        {
          "internalType": "address",
          "name": "_tokenAddress",
          "type": "address"
        },
        {
          "internalType": "address",
          "name": "_user",
          "type": "address"
        }
      ],
      "name": "YourTotalFarmingTillToday",
      "outputs": [
        {
          "internalType": "uint256",
          "name": "_totalFarming",
          "type": "uint256"
        }
      ],
      "payable": false,
      "stateMutability": "view",
      "type": "function"
    },
    {
      "constant": true,
      "inputs": [
        {
          "internalType": "address",
          "name": "_tokenAddress",
          "type": "address"
        },
        {
          "internalType": "address",
          "name": "_user",
          "type": "address"
        }
      ],
      "name": "LastFarmedOn",
      "outputs": [
        {
          "internalType": "uint256",
          "name": "_unixLastFarmedTime",
          "type": "uint256"
        }
      ],
      "payable": false,
      "stateMutability": "view",
      "type": "function"
    },
    {
      "constant": true,
      "inputs": [
        {
          "internalType": "address",
          "name": "_tokenAddress",
          "type": "address"
        },
        {
          "internalType": "address",
          "name": "_user",
          "type": "address"
        }
      ],
      "name": "TotalFarmingRewards",
      "outputs": [
        {
          "internalType": "uint256",
          "name": "_totalEarned",
          "type": "uint256"
        }
      ],
      "payable": false,
      "stateMutability": "view",
      "type": "function"
    },
    {
      "constant": false,
      "inputs": [
        {
          "internalType": "address",
          "name": "_govAddress",
          "type": "address"
        }
      ],
      "name": "setGovernanceContract",
      "outputs": [],
      "payable": false,
      "stateMutability": "nonpayable",
      "type": "function"
    },
    {
      "constant": false,
      "inputs": [
        {
          "internalType": "address",
          "name": "_tokenAddress",
          "type": "address"
        },
        {
          "internalType": "uint256",
          "name": "_rate",
          "type": "uint256"
        }
      ],
      "name": "AddToken",
      "outputs": [],
      "payable": false,
      "stateMutability": "nonpayable",
      "type": "function"
    },
    {
      "constant": false,
      "inputs": [
        {
          "internalType": "address",
          "name": "_tokenAddress",
          "type": "address"
        }
      ],
      "name": "RemoveToken",
      "outputs": [],
      "payable": false,
      "stateMutability": "nonpayable",
      "type": "function"
    },
    {
      "constant": false,
      "inputs": [
        {
          "internalType": "address",
          "name": "_tokenAddress",
          "type": "address"
        },
        {
          "internalType": "uint256",
          "name": "_newFarmingRate",
          "type": "uint256"
        }
      ],
      "name": "ChangeFarmingRate",
      "outputs": [],
      "payable": false,
      "stateMutability": "nonpayable",
      "type": "function"
    },
    {
      "constant": false,
      "inputs": [
        {
          "internalType": "uint256",
          "name": "_fee",
          "type": "uint256"
        }
      ],
      "name": "SetYieldCollectionFee",
      "outputs": [],
      "payable": false,
      "stateMutability": "nonpayable",
      "type": "function"
    },
    {
      "constant": true,
      "inputs": [
        {
          "internalType": "address",
          "name": "_caller",
          "type": "address"
        }
      ],
      "name": "PendingReward",
      "outputs": [
        {
          "internalType": "uint256",
          "name": "_pendingReward",
          "type": "uint256"
        }
      ],
      "payable": false,
      "stateMutability": "view",
      "type": "function"
    },
    {
      "constant": true,
      "inputs": [
        {
          "internalType": "address",
          "name": "_user",
          "type": "address"
        }
      ],
      "name": "YourActiveStake",
      "outputs": [
        {
          "internalType": "uint256",
          "name": "_activeStake",
          "type": "uint256"
        }
      ],
      "payable": false,
      "stateMutability": "view",
      "type": "function"
    },
    {
      "constant": true,
      "inputs": [
        {
          "internalType": "address",
          "name": "_user",
          "type": "address"
        }
      ],
      "name": "YourTotalStakesTillToday",
      "outputs": [
        {
          "internalType": "uint256",
          "name": "_totalStakes",
          "type": "uint256"
        }
      ],
      "payable": false,
      "stateMutability": "view",
      "type": "function"
    },
    {
      "constant": true,
      "inputs": [
        {
          "internalType": "address",
          "name": "_user",
          "type": "address"
        }
      ],
      "name": "LastStakedOn",
      "outputs": [
        {
          "internalType": "uint256",
          "name": "_unixLastStakedTime",
          "type": "uint256"
        }
      ],
      "payable": false,
      "stateMutability": "view",
      "type": "function"
    },
    {
      "constant": true,
      "inputs": [
        {
          "internalType": "address",
          "name": "_user",
          "type": "address"
        }
      ],
      "name": "TotalStakeRewardsClaimedTillToday",
      "outputs": [
        {
          "internalType": "uint256",
          "name": "_totalEarned",
          "type": "uint256"
        }
      ],
      "payable": false,
      "stateMutability": "view",
      "type": "function"
    },
    {
      "constant": true,
      "inputs": [],
      "name": "LatestStakingRate",
      "outputs": [
        {
          "internalType": "uint256",
          "name": "APY",
          "type": "uint256"
        }
      ],
      "payable": false,
      "stateMutability": "view",
      "type": "function"
    },
    {
      "constant": true,
      "inputs": [
        {
          "internalType": "address",
          "name": "_user",
          "type": "address"
        }
      ],
      "name": "YourStakingRate",
      "outputs": [
        {
          "internalType": "uint256",
          "name": "_stakingRate",
          "type": "uint256"
        }
      ],
      "payable": false,
      "stateMutability": "view",
      "type": "function"
    },
    {
      "constant": true,
      "inputs": [
        {
          "internalType": "address",
          "name": "_user",
          "type": "address"
        }
      ],
      "name": "YourStakingPeriod",
      "outputs": [
        {
          "internalType": "uint256",
          "name": "_stakingPeriod",
          "type": "uint256"
        }
      ],
      "payable": false,
      "stateMutability": "view",
      "type": "function"
    },
    {
      "constant": true,
      "inputs": [
        {
          "internalType": "address",
          "name": "_user",
          "type": "address"
        }
      ],
      "name": "StakingTimeLeft",
      "outputs": [
        {
          "internalType": "uint256",
          "name": "_secsLeft",
          "type": "uint256"
        }
      ],
      "payable": false,
      "stateMutability": "view",
      "type": "function"
    },
    {
      "constant": false,
      "inputs": [
        {
          "internalType": "uint256",
          "name": "_newStakingRate",
          "type": "uint256"
        }
      ],
      "name": "ChangeStakingRate",
      "outputs": [],
      "payable": false,
      "stateMutability": "nonpayable",
      "type": "function"
    },
    {
      "constant": false,
      "inputs": [
        {
          "internalType": "uint256",
          "name": "_minStakeLimit",
          "type": "uint256"
        }
      ],
      "name": "SetMinStakeLimit",
      "outputs": [],
      "payable": false,
      "stateMutability": "nonpayable",
      "type": "function"
    },
    {
      "constant": false,
      "inputs": [
        {
          "internalType": "uint256",
          "name": "_seconds",
          "type": "uint256"
        }
      ],
      "name": "SetStakingPeriod",
      "outputs": [],
      "payable": false,
      "stateMutability": "nonpayable",
      "type": "function"
    },
    {
      "constant": false,
      "inputs": [
        {
          "internalType": "uint256",
          "name": "_fee",
          "type": "uint256"
        }
      ],
      "name": "SetClaimFee",
      "outputs": [],
      "payable": false,
      "stateMutability": "nonpayable",
      "type": "function"
    }
  ],
  "bytecode": "0x6080604052662386f26fc1000060015560b460025566038d7ea4c68000600355681b1ae4d6e2ef5000006004553480156200003957600080fd5b506040516200608e3803806200608e833981810160405260208110156200005f57600080fd5b8101908080519060200190929190505050336000806101000a81548173ffffffffffffffffffffffffffffffffffffffff021916908373ffffffffffffffffffffffffffffffffffffffff16021790555080600760006101000a81548173ffffffffffffffffffffffffffffffffffffffff021916908373ffffffffffffffffffffffffffffffffffffffff160217905550620001048160286200010b60201b60201c565b5062000301565b600860008373ffffffffffffffffffffffffffffffffffffffff1673ffffffffffffffffffffffffffffffffffffffff16815260200190815260200160002060000160009054906101000a900460ff1615620001cf576040517f08c379a00000000000000000000000000000000000000000000000000000000081526004018080602001828103825260148152602001807f746f6b656e20616c72656164792065786973747300000000000000000000000081525060200191505060405180910390fd5b604051806040016040528060011515815260200182815250600860008473ffffffffffffffffffffffffffffffffffffffff1673ffffffffffffffffffffffffffffffffffffffff16815260200190815260200160002060008201518160000160006101000a81548160ff0219169083151502179055506020820151816001015590505060098290806001815401808255809150509060018203906000526020600020016000909192909190916101000a81548173ffffffffffffffffffffffffffffffffffffffff021916908373ffffffffffffffffffffffffffffffffffffffff16021790555050808273ffffffffffffffffffffffffffffffffffffffff167ff4c563a3ea86ff1f4275e8c207df0375a51963f2b831b7bf4da8be938d92876c60405160405180910390a35050565b615d7d80620003116000396000f3fe6080604052600436106102465760003560e01c80638da5cb5b11610139578063c1672177116100b6578063e1bea1af1161007a578063e1bea1af14610d0c578063e486033914610d67578063f2fde38b14610dd7578063faea053214610e28578063fe995a4e14610e8d578063fea167e014610ee857610246565b8063c167217714610b81578063c74e9f7714610bbc578063cd926e1314610bf7578063cef3c15614610c7c578063dd4d2dd514610ca757610246565b8063af16b538116100fd578063af16b53814610a4b578063b3872dc714610a76578063bd7b219414610aba578063c03d5b4714610ad1578063c141a95114610afc57610246565b80638da5cb5b146108b25780638f670e54146109095780639328ec3614610964578063a7bbd498146109c9578063abff574714610a2057610246565b8063227a473b116101c757806356e6a5001161018b57806356e6a500146107685780635eb478d5146107cd57806367e7ac801461080857806379372f9a14610843578063896931b01461084d57610246565b8063227a473b146105775780633252a02e146105b25780634453cb2f1461060d5780634eb129c8146106925780634ebf68cf146106e357610246565b806319e158361161020e57806319e15836146103925780631b359373146103f75780631b38b912146104525780631d662c06146104b75780631fade8631461053c57610246565b8063014182051461024b57806305dc5a19146102765780630e15561a146102db5780631129753f1461030657806313fa675f14610357575b600080fd5b34801561025757600080fd5b50610260610f13565b6040518082815260200191505060405180910390f35b34801561028257600080fd5b506102c56004803603602081101561029957600080fd5b81019080803573ffffffffffffffffffffffffffffffffffffffff169060200190929190505050610f19565b6040518082815260200191505060405180910390f35b3480156102e757600080fd5b506102f0610fc4565b6040518082815260200191505060405180910390f35b34801561031257600080fd5b506103556004803603602081101561032957600080fd5b81019080803573ffffffffffffffffffffffffffffffffffffffff169060200190929190505050610fca565b005b34801561036357600080fd5b506103906004803603602081101561037a57600080fd5b81019080803590602001909291905050506110aa565b005b34801561039e57600080fd5b506103e1600480360360208110156103b557600080fd5b81019080803573ffffffffffffffffffffffffffffffffffffffff169060200190929190505050611167565b6040518082815260200191505060405180910390f35b34801561040357600080fd5b506104506004803603604081101561041a57600080fd5b81019080803573ffffffffffffffffffffffffffffffffffffffff16906020019092919080359060200190929190505050611212565b005b34801561045e57600080fd5b506104a16004803603602081101561047557600080fd5b81019080803573ffffffffffffffffffffffffffffffffffffffff169060200190929190505050611427565b6040518082815260200191505060405180910390f35b3480156104c357600080fd5b50610526600480360360408110156104da57600080fd5b81019080803573ffffffffffffffffffffffffffffffffffffffff169060200190929190803573ffffffffffffffffffffffffffffffffffffffff1690602001909291905050506114d2565b6040518082815260200191505060405180910390f35b34801561054857600080fd5b506105756004803603602081101561055f57600080fd5b810190808035906020019092919050505061155c565b005b34801561058357600080fd5b506105b06004803603602081101561059a57600080fd5b81019080803590602001909291905050506116a8565b005b3480156105be57600080fd5b5061060b600480360360408110156105d557600080fd5b81019080803573ffffffffffffffffffffffffffffffffffffffff16906020019092919080359060200190929190505050611899565b005b34801561061957600080fd5b5061067c6004803603604081101561063057600080fd5b81019080803573ffffffffffffffffffffffffffffffffffffffff169060200190929190803573ffffffffffffffffffffffffffffffffffffffff169060200190929190505050611a9d565b6040518082815260200191505060405180910390f35b34801561069e57600080fd5b506106e1600480360360208110156106b557600080fd5b81019080803573ffffffffffffffffffffffffffffffffffffffff169060200190929190505050611b27565b005b3480156106ef57600080fd5b506107526004803603604081101561070657600080fd5b81019080803573ffffffffffffffffffffffffffffffffffffffff169060200190929190803573ffffffffffffffffffffffffffffffffffffffff169060200190929190505050611d80565b6040518082815260200191505060405180910390f35b34801561077457600080fd5b506107b76004803603602081101561078b57600080fd5b81019080803573ffffffffffffffffffffffffffffffffffffffff169060200190929190505050611ff2565b6040518082815260200191505060405180910390f35b3480156107d957600080fd5b50610806600480360360208110156107f057600080fd5b81019080803590602001909291905050506120e1565b005b34801561081457600080fd5b506108416004803603602081101561082b57600080fd5b81019080803590602001909291905050506121cb565b005b61084b612288565b005b34801561085957600080fd5b5061089c6004803603602081101561087057600080fd5b81019080803573ffffffffffffffffffffffffffffffffffffffff1690602001909291905050506127e8565b6040518082815260200191505060405180910390f35b3480156108be57600080fd5b506108c7612893565b604051808273ffffffffffffffffffffffffffffffffffffffff1673ffffffffffffffffffffffffffffffffffffffff16815260200191505060405180910390f35b34801561091557600080fd5b506109626004803603604081101561092c57600080fd5b81019080803573ffffffffffffffffffffffffffffffffffffffff169060200190929190803590602001909291905050506128b8565b005b34801561097057600080fd5b506109b36004803603602081101561098757600080fd5b81019080803573ffffffffffffffffffffffffffffffffffffffff169060200190929190505050612acd565b6040518082815260200191505060405180910390f35b3480156109d557600080fd5b506109de6130da565b604051808273ffffffffffffffffffffffffffffffffffffffff1673ffffffffffffffffffffffffffffffffffffffff16815260200191505060405180910390f35b348015610a2c57600080fd5b50610a35613100565b6040518082815260200191505060405180910390f35b348015610a5757600080fd5b50610a6061316c565b6040518082815260200191505060405180910390f35b610ab860048036036020811015610a8c57600080fd5b81019080803573ffffffffffffffffffffffffffffffffffffffff169060200190929190505050613172565b005b348015610ac657600080fd5b50610acf6137d3565b005b348015610add57600080fd5b50610ae6613dc5565b6040518082815260200191505060405180910390f35b348015610b0857600080fd5b50610b6b60048036036040811015610b1f57600080fd5b81019080803573ffffffffffffffffffffffffffffffffffffffff169060200190929190803573ffffffffffffffffffffffffffffffffffffffff169060200190929190505050613dcb565b6040518082815260200191505060405180910390f35b348015610b8d57600080fd5b50610bba60048036036020811015610ba457600080fd5b8101908080359060200190929190505050613e55565b005b348015610bc857600080fd5b50610bf560048036036020811015610bdf57600080fd5b81019080803590602001909291905050506141a2565b005b348015610c0357600080fd5b50610c6660048036036040811015610c1a57600080fd5b81019080803573ffffffffffffffffffffffffffffffffffffffff169060200190929190803573ffffffffffffffffffffffffffffffffffffffff16906020019092919050505061425f565b6040518082815260200191505060405180910390f35b348015610c8857600080fd5b50610c916142e9565b6040518082815260200191505060405180910390f35b348015610cb357600080fd5b50610cf660048036036020811015610cca57600080fd5b81019080803573ffffffffffffffffffffffffffffffffffffffff1690602001909291905050506142ef565b6040518082815260200191505060405180910390f35b348015610d1857600080fd5b50610d6560048036036040811015610d2f57600080fd5b81019080803573ffffffffffffffffffffffffffffffffffffffff1690602001909291908035906020019092919050505061439a565b005b348015610d7357600080fd5b50610db660048036036020811015610d8a57600080fd5b81019080803573ffffffffffffffffffffffffffffffffffffffff16906020019092919050505061445b565b60405180831515151581526020018281526020019250505060405180910390f35b348015610de357600080fd5b50610e2660048036036020811015610dfa57600080fd5b81019080803573ffffffffffffffffffffffffffffffffffffffff16906020019092919050505061448c565b005b348015610e3457600080fd5b50610e7760048036036020811015610e4b57600080fd5b81019080803573ffffffffffffffffffffffffffffffffffffffff169060200190929190505050614582565b6040518082815260200191505060405180910390f35b348015610e9957600080fd5b50610ee660048036036040811015610eb057600080fd5b81019080803573ffffffffffffffffffffffffffffffffffffffff1690602001909291908035906020019092919050505061462d565b005b348015610ef457600080fd5b50610efd614ba3565b6040518082815260200191505060405180910390f35b60055481565b6000600b60008373ffffffffffffffffffffffffffffffffffffffff1673ffffffffffffffffffffffffffffffffffffffff1681526020019081526020016000206000600760009054906101000a900473ffffffffffffffffffffffffffffffffffffffff1673ffffffffffffffffffffffffffffffffffffffff1673ffffffffffffffffffffffffffffffffffffffff168152602001908152602001600020600101549050919050565b60065481565b6000809054906101000a900473ffffffffffffffffffffffffffffffffffffffff1673ffffffffffffffffffffffffffffffffffffffff163373ffffffffffffffffffffffffffffffffffffffff161461102357600080fd5b80600a60006101000a81548173ffffffffffffffffffffffffffffffffffffffff021916908373ffffffffffffffffffffffffffffffffffffffff1602179055508073ffffffffffffffffffffffffffffffffffffffff167fc73be659241aade67e9a059bcf21494955018b213dbd1179054ccf928b13f3b660405160405180910390a250565b336000809054906101000a900473ffffffffffffffffffffffffffffffffffffffff1673ffffffffffffffffffffffffffffffffffffffff168173ffffffffffffffffffffffffffffffffffffffff1614806111535750600a60009054906101000a900473ffffffffffffffffffffffffffffffffffffffff1673ffffffffffffffffffffffffffffffffffffffff168173ffffffffffffffffffffffffffffffffffffffff16145b61115c57600080fd5b816003819055505050565b6000600b60008373ffffffffffffffffffffffffffffffffffffffff1673ffffffffffffffffffffffffffffffffffffffff1681526020019081526020016000206000600760009054906101000a900473ffffffffffffffffffffffffffffffffffffffff1673ffffffffffffffffffffffffffffffffffffffff1673ffffffffffffffffffffffffffffffffffffffff168152602001908152602001600020600301549050919050565b600760009054906101000a900473ffffffffffffffffffffffffffffffffffffffff1673ffffffffffffffffffffffffffffffffffffffff168273ffffffffffffffffffffffffffffffffffffffff1614156112d6576040517f08c379a00000000000000000000000000000000000000000000000000000000081526004018080602001828103825260138152602001807f557365207374616b696e6720696e73746561640000000000000000000000000081525060200191505060405180910390fd5b6112e08282614ba9565b8173ffffffffffffffffffffffffffffffffffffffff166323b872dd3330846040518463ffffffff1660e01b8152600401808473ffffffffffffffffffffffffffffffffffffffff1673ffffffffffffffffffffffffffffffffffffffff1681526020018373ffffffffffffffffffffffffffffffffffffffff1673ffffffffffffffffffffffffffffffffffffffff1681526020018281526020019350505050602060405180830381600087803b15801561139b57600080fd5b505af11580156113af573d6000803e3d6000fd5b505050506040513d60208110156113c557600080fd5b81019080805190602001909291905050506113df57600080fd5b808273ffffffffffffffffffffffffffffffffffffffff167f7de25affb428d2916c612e371f3ece047da76e52c3b848bc8aa98f8f832d10fe60405160405180910390a35050565b6000600b60008373ffffffffffffffffffffffffffffffffffffffff1673ffffffffffffffffffffffffffffffffffffffff1681526020019081526020016000206000600760009054906101000a900473ffffffffffffffffffffffffffffffffffffffff1673ffffffffffffffffffffffffffffffffffffffff1673ffffffffffffffffffffffffffffffffffffffff168152602001908152602001600020600801549050919050565b6000600b60008373ffffffffffffffffffffffffffffffffffffffff1673ffffffffffffffffffffffffffffffffffffffff16815260200190815260200160002060008473ffffffffffffffffffffffffffffffffffffffff1673ffffffffffffffffffffffffffffffffffffffff16815260200190815260200160002060030154905092915050565b336000809054906101000a900473ffffffffffffffffffffffffffffffffffffffff1673ffffffffffffffffffffffffffffffffffffffff168173ffffffffffffffffffffffffffffffffffffffff1614806116055750600a60009054906101000a900473ffffffffffffffffffffffffffffffffffffffff1673ffffffffffffffffffffffffffffffffffffffff168173ffffffffffffffffffffffffffffffffffffffff16145b61160e57600080fd5b8160086000600760009054906101000a900473ffffffffffffffffffffffffffffffffffffffff1673ffffffffffffffffffffffffffffffffffffffff1673ffffffffffffffffffffffffffffffffffffffff16815260200190815260200160002060010181905550817fb0ee74db6dce7f227ef9bf096b4b0baaa897706d47aa9e753125ceac39751c3560405160405180910390a25050565b80600454811015611704576040517f08c379a0000000000000000000000000000000000000000000000000000000008152600401808060200182810382526039815260200180615d106039913960400191505060405180910390fd5b611730600760009054906101000a900473ffffffffffffffffffffffffffffffffffffffff1683614ba9565b600760009054906101000a900473ffffffffffffffffffffffffffffffffffffffff1673ffffffffffffffffffffffffffffffffffffffff166323b872dd3330856040518463ffffffff1660e01b8152600401808473ffffffffffffffffffffffffffffffffffffffff1673ffffffffffffffffffffffffffffffffffffffff1681526020018373ffffffffffffffffffffffffffffffffffffffff1673ffffffffffffffffffffffffffffffffffffffff1681526020018281526020019350505050602060405180830381600087803b15801561180d57600080fd5b505af1158015611821573d6000803e3d6000fd5b505050506040513d602081101561183757600080fd5b810190808051906020019092919050505061185157600080fd5b813373ffffffffffffffffffffffffffffffffffffffff167f9e71bc8eea02a63969f509818f2dafb9254532904319f9dbda79b67bd34a5f3d60405160405180910390a35050565b336000809054906101000a900473ffffffffffffffffffffffffffffffffffffffff1673ffffffffffffffffffffffffffffffffffffffff168173ffffffffffffffffffffffffffffffffffffffff1614806119425750600a60009054906101000a900473ffffffffffffffffffffffffffffffffffffffff1673ffffffffffffffffffffffffffffffffffffffff168173ffffffffffffffffffffffffffffffffffffffff16145b61194b57600080fd5b600860008473ffffffffffffffffffffffffffffffffffffffff1673ffffffffffffffffffffffffffffffffffffffff16815260200190815260200160002060000160009054906101000a900460ff16611a0d576040517f08c379a00000000000000000000000000000000000000000000000000000000081526004018080602001828103825260138152602001807f746f6b656e20646f65736e27742065786973740000000000000000000000000081525060200191505060405180910390fd5b81600860008573ffffffffffffffffffffffffffffffffffffffff1673ffffffffffffffffffffffffffffffffffffffff16815260200190815260200160002060010181905550818373ffffffffffffffffffffffffffffffffffffffff167f7f1955a793d9c38c520b2e8394264d17e1ebbcfbeefed578552fea2149bc7a2360405160405180910390a3505050565b6000600b60008373ffffffffffffffffffffffffffffffffffffffff1673ffffffffffffffffffffffffffffffffffffffff16815260200190815260200160002060008473ffffffffffffffffffffffffffffffffffffffff1673ffffffffffffffffffffffffffffffffffffffff16815260200190815260200160002060060154905092915050565b336000809054906101000a900473ffffffffffffffffffffffffffffffffffffffff1673ffffffffffffffffffffffffffffffffffffffff168173ffffffffffffffffffffffffffffffffffffffff161480611bd05750600a60009054906101000a900473ffffffffffffffffffffffffffffffffffffffff1673ffffffffffffffffffffffffffffffffffffffff168173ffffffffffffffffffffffffffffffffffffffff16145b611bd957600080fd5b600860008373ffffffffffffffffffffffffffffffffffffffff1673ffffffffffffffffffffffffffffffffffffffff16815260200190815260200160002060000160009054906101000a900460ff16611c9b576040517f08c379a00000000000000000000000000000000000000000000000000000000081526004018080602001828103825260138152602001807f746f6b656e20646f65736e27742065786973740000000000000000000000000081525060200191505060405180910390fd5b6000600860008473ffffffffffffffffffffffffffffffffffffffff1673ffffffffffffffffffffffffffffffffffffffff16815260200190815260200160002060000160006101000a81548160ff021916908315150217905550600860008373ffffffffffffffffffffffffffffffffffffffff1673ffffffffffffffffffffffffffffffffffffffff168152602001908152602001600020600101548273ffffffffffffffffffffffffffffffffffffffff167fbe9bb4bdca0a094babd75e3a98b1d2e2390633430d0a2f6e2b9970e2ee03fb2e60405160405180910390a35050565b600080611e15600b60008573ffffffffffffffffffffffffffffffffffffffff1673ffffffffffffffffffffffffffffffffffffffff16815260200190815260200160002060008673ffffffffffffffffffffffffffffffffffffffff1673ffffffffffffffffffffffffffffffffffffffff16815260200190815260200160002060050154426152c690919063ffffffff16565b90506000611e8d6301e13380611e7f683635c9adc5dea00000600860008a73ffffffffffffffffffffffffffffffffffffffff1673ffffffffffffffffffffffffffffffffffffffff168152602001908152602001600020600101546152dd90919063ffffffff16565b61531490919063ffffffff16565b90506000611f536b033b2e3c9fd0803ce8000000611f45611eb785876152dd90919063ffffffff16565b600b60008a73ffffffffffffffffffffffffffffffffffffffff1673ffffffffffffffffffffffffffffffffffffffff16815260200190815260200160002060008b73ffffffffffffffffffffffffffffffffffffffff1673ffffffffffffffffffffffffffffffffffffffff168152602001908152602001600020600101546152dd90919063ffffffff16565b61531490919063ffffffff16565b9050611fe7600b60008773ffffffffffffffffffffffffffffffffffffffff1673ffffffffffffffffffffffffffffffffffffffff16815260200190815260200160002060008873ffffffffffffffffffffffffffffffffffffffff1673ffffffffffffffffffffffffffffffffffffffff168152602001908152602001600020600401548261532d90919063ffffffff16565b935050505092915050565b6000806000905060006120b761200785611167565b600b60008773ffffffffffffffffffffffffffffffffffffffff1673ffffffffffffffffffffffffffffffffffffffff1681526020019081526020016000206000600760009054906101000a900473ffffffffffffffffffffffffffffffffffffffff1673ffffffffffffffffffffffffffffffffffffffff1673ffffffffffffffffffffffffffffffffffffffff1681526020019081526020016000206008015461532d90919063ffffffff16565b9050804210156120d7576120d442826152c690919063ffffffff16565b91505b8192505050919050565b336000809054906101000a900473ffffffffffffffffffffffffffffffffffffffff1673ffffffffffffffffffffffffffffffffffffffff168173ffffffffffffffffffffffffffffffffffffffff16148061218a5750600a60009054906101000a900473ffffffffffffffffffffffffffffffffffffffff1673ffffffffffffffffffffffffffffffffffffffff168173ffffffffffffffffffffffffffffffffffffffff16145b61219357600080fd5b81600181905550817f514c42e17f7b6a99f4565772ac1cb1283fb5538cc7c0a15937542d0ae004044f60405160405180910390a25050565b336000809054906101000a900473ffffffffffffffffffffffffffffffffffffffff1673ffffffffffffffffffffffffffffffffffffffff168173ffffffffffffffffffffffffffffffffffffffff1614806122745750600a60009054906101000a900473ffffffffffffffffffffffffffffffffffffffff1673ffffffffffffffffffffffffffffffffffffffff168173ffffffffffffffffffffffffffffffffffffffff16145b61227d57600080fd5b816004819055505050565b600354341015612300576040517f08c379a000000000000000000000000000000000000000000000000000000000815260040180806020018281038252601a8152602001807f73686f756c642070617920657861637420636c61696d2066656500000000000081525060200191505060405180910390fd5b600061230b33612acd565b1161237e576040517f08c379a00000000000000000000000000000000000000000000000000000000081526004018080602001828103825260188152602001807f6e6f7468696e672070656e64696e6720746f20636c61696d000000000000000081525060200191505060405180910390fd5b600061238933612acd565b90506123a08160065461532d90919063ffffffff16565b60068190555061245a81600b60003373ffffffffffffffffffffffffffffffffffffffff1673ffffffffffffffffffffffffffffffffffffffff1681526020019081526020016000206000600760009054906101000a900473ffffffffffffffffffffffffffffffffffffffff1673ffffffffffffffffffffffffffffffffffffffff1673ffffffffffffffffffffffffffffffffffffffff1681526020019081526020016000206006015461532d90919063ffffffff16565b600b60003373ffffffffffffffffffffffffffffffffffffffff1673ffffffffffffffffffffffffffffffffffffffff1681526020019081526020016000206000600760009054906101000a900473ffffffffffffffffffffffffffffffffffffffff1673ffffffffffffffffffffffffffffffffffffffff1673ffffffffffffffffffffffffffffffffffffffff1681526020019081526020016000206006018190555042600b60003373ffffffffffffffffffffffffffffffffffffffff1673ffffffffffffffffffffffffffffffffffffffff1681526020019081526020016000206000600760009054906101000a900473ffffffffffffffffffffffffffffffffffffffff1673ffffffffffffffffffffffffffffffffffffffff1673ffffffffffffffffffffffffffffffffffffffff168152602001908152602001600020600501819055506000600b60003373ffffffffffffffffffffffffffffffffffffffff1673ffffffffffffffffffffffffffffffffffffffff1681526020019081526020016000206000600760009054906101000a900473ffffffffffffffffffffffffffffffffffffffff1673ffffffffffffffffffffffffffffffffffffffff1673ffffffffffffffffffffffffffffffffffffffff168152602001908152602001600020600401819055506000809054906101000a900473ffffffffffffffffffffffffffffffffffffffff1673ffffffffffffffffffffffffffffffffffffffff166108fc349081150290604051600060405180830381858888f193505050501580156126b3573d6000803e3d6000fd5b50600760009054906101000a900473ffffffffffffffffffffffffffffffffffffffff1673ffffffffffffffffffffffffffffffffffffffff16636a9c5acd82336040518363ffffffff1660e01b8152600401808381526020018273ffffffffffffffffffffffffffffffffffffffff1673ffffffffffffffffffffffffffffffffffffffff16815260200192505050602060405180830381600087803b15801561275d57600080fd5b505af1158015612771573d6000803e3d6000fd5b505050506040513d602081101561278757600080fd5b81019080805190602001909291905050506127a157600080fd5b803373ffffffffffffffffffffffffffffffffffffffff167f106f923f993c2149d49b4255ff723acafa1f2d94393f561d3eda32ae348f724160405160405180910390a350565b6000600b60008373ffffffffffffffffffffffffffffffffffffffff1673ffffffffffffffffffffffffffffffffffffffff1681526020019081526020016000206000600760009054906101000a900473ffffffffffffffffffffffffffffffffffffffff1673ffffffffffffffffffffffffffffffffffffffff1673ffffffffffffffffffffffffffffffffffffffff168152602001908152602001600020600601549050919050565b6000809054906101000a900473ffffffffffffffffffffffffffffffffffffffff1681565b600760009054906101000a900473ffffffffffffffffffffffffffffffffffffffff1673ffffffffffffffffffffffffffffffffffffffff168273ffffffffffffffffffffffffffffffffffffffff16141561297c576040517f08c379a00000000000000000000000000000000000000000000000000000000081526004018080602001828103825260138152602001807f757365207374616b696e6720696e73746561640000000000000000000000000081525060200191505060405180910390fd5b6129868282615349565b8173ffffffffffffffffffffffffffffffffffffffff166323b872dd3330846040518463ffffffff1660e01b8152600401808473ffffffffffffffffffffffffffffffffffffffff1673ffffffffffffffffffffffffffffffffffffffff1681526020018373ffffffffffffffffffffffffffffffffffffffff1673ffffffffffffffffffffffffffffffffffffffff1681526020018281526020019350505050602060405180830381600087803b158015612a4157600080fd5b505af1158015612a55573d6000803e3d6000fd5b505050506040513d6020811015612a6b57600080fd5b8101908080519060200190929190505050612a8557600080fd5b808273ffffffffffffffffffffffffffffffffffffffff167f0f53de7833b10029a9cc77140305b2a85bce72a6064e4aa0d584412a0fe473d760405160405180910390a35050565b600080600090506000612c2b600b60008673ffffffffffffffffffffffffffffffffffffffff1673ffffffffffffffffffffffffffffffffffffffff1681526020019081526020016000206000600760009054906101000a900473ffffffffffffffffffffffffffffffffffffffff1673ffffffffffffffffffffffffffffffffffffffff1673ffffffffffffffffffffffffffffffffffffffff16815260200190815260200160002060030154600b60008773ffffffffffffffffffffffffffffffffffffffff1673ffffffffffffffffffffffffffffffffffffffff1681526020019081526020016000206000600760009054906101000a900473ffffffffffffffffffffffffffffffffffffffff1673ffffffffffffffffffffffffffffffffffffffff1673ffffffffffffffffffffffffffffffffffffffff1681526020019081526020016000206008015461532d90919063ffffffff16565b905080421015612cf057612ce9600b60008673ffffffffffffffffffffffffffffffffffffffff1673ffffffffffffffffffffffffffffffffffffffff1681526020019081526020016000206000600760009054906101000a900473ffffffffffffffffffffffffffffffffffffffff1673ffffffffffffffffffffffffffffffffffffffff1673ffffffffffffffffffffffffffffffffffffffff16815260200190815260200160002060050154426152c690919063ffffffff16565b9150612e59565b80600b60008673ffffffffffffffffffffffffffffffffffffffff1673ffffffffffffffffffffffffffffffffffffffff1681526020019081526020016000206000600760009054906101000a900473ffffffffffffffffffffffffffffffffffffffff1673ffffffffffffffffffffffffffffffffffffffff1673ffffffffffffffffffffffffffffffffffffffff1681526020019081526020016000206005015410612da15760009150612e58565b612e55600b60008673ffffffffffffffffffffffffffffffffffffffff1673ffffffffffffffffffffffffffffffffffffffff1681526020019081526020016000206000600760009054906101000a900473ffffffffffffffffffffffffffffffffffffffff1673ffffffffffffffffffffffffffffffffffffffff1673ffffffffffffffffffffffffffffffffffffffff16815260200190815260200160002060050154826152c690919063ffffffff16565b91505b5b6000612f18683635c9adc5dea00000600b60008873ffffffffffffffffffffffffffffffffffffffff1673ffffffffffffffffffffffffffffffffffffffff1681526020019081526020016000206000600760009054906101000a900473ffffffffffffffffffffffffffffffffffffffff1673ffffffffffffffffffffffffffffffffffffffff1673ffffffffffffffffffffffffffffffffffffffff168152602001908152602001600020600701546152dd90919063ffffffff16565b905060006130006b033b2e3c9fd0803ce8000000612ff2612f4285886152dd90919063ffffffff16565b600b60008b73ffffffffffffffffffffffffffffffffffffffff1673ffffffffffffffffffffffffffffffffffffffff1681526020019081526020016000206000600760009054906101000a900473ffffffffffffffffffffffffffffffffffffffff1673ffffffffffffffffffffffffffffffffffffffff1673ffffffffffffffffffffffffffffffffffffffff168152602001908152602001600020600101546152dd90919063ffffffff16565b61531490919063ffffffff16565b90506130196301e133808261531490919063ffffffff16565b90506130cf600b60008873ffffffffffffffffffffffffffffffffffffffff1673ffffffffffffffffffffffffffffffffffffffff1681526020019081526020016000206000600760009054906101000a900473ffffffffffffffffffffffffffffffffffffffff1673ffffffffffffffffffffffffffffffffffffffff1673ffffffffffffffffffffffffffffffffffffffff168152602001908152602001600020600401548261532d90919063ffffffff16565b945050505050919050565b600760009054906101000a900473ffffffffffffffffffffffffffffffffffffffff1681565b600060086000600760009054906101000a900473ffffffffffffffffffffffffffffffffffffffff1673ffffffffffffffffffffffffffffffffffffffff1673ffffffffffffffffffffffffffffffffffffffff16815260200190815260200160002060010154905090565b60015481565b6001543410156131ea576040517f08c379a000000000000000000000000000000000000000000000000000000000815260040180806020018281038252601a8152602001807f73686f756c642070617920657861637420636c61696d2066656500000000000081525060200191505060405180910390fd5b60006131f68233611d80565b11613269576040517f08c379a00000000000000000000000000000000000000000000000000000000081526004018080602001828103825260108152602001807f4e6f2070656e64696e67207969656c640000000000000000000000000000000081525060200191505060405180910390fd5b600860008273ffffffffffffffffffffffffffffffffffffffff1673ffffffffffffffffffffffffffffffffffffffff16815260200190815260200160002060000160009054906101000a900460ff1661332b576040517f08c379a00000000000000000000000000000000000000000000000000000000081526004018080602001828103825260138152602001807f546f6b656e20646f65736e27742065786973740000000000000000000000000081525060200191505060405180910390fd5b600760009054906101000a900473ffffffffffffffffffffffffffffffffffffffff1673ffffffffffffffffffffffffffffffffffffffff168173ffffffffffffffffffffffffffffffffffffffff1614156133ef576040517f08c379a00000000000000000000000000000000000000000000000000000000081526004018080602001828103825260138152602001807f757365207374616b696e6720696e73746561640000000000000000000000000081525060200191505060405180910390fd5b60006133fb8233611d80565b90506134128160055461532d90919063ffffffff16565b6005819055506134aa81600b60003373ffffffffffffffffffffffffffffffffffffffff1673ffffffffffffffffffffffffffffffffffffffff16815260200190815260200160002060008573ffffffffffffffffffffffffffffffffffffffff1673ffffffffffffffffffffffffffffffffffffffff1681526020019081526020016000206006015461532d90919063ffffffff16565b600b60003373ffffffffffffffffffffffffffffffffffffffff1673ffffffffffffffffffffffffffffffffffffffff16815260200190815260200160002060008473ffffffffffffffffffffffffffffffffffffffff1673ffffffffffffffffffffffffffffffffffffffff1681526020019081526020016000206006018190555042600b60003373ffffffffffffffffffffffffffffffffffffffff1673ffffffffffffffffffffffffffffffffffffffff16815260200190815260200160002060008473ffffffffffffffffffffffffffffffffffffffff1673ffffffffffffffffffffffffffffffffffffffff168152602001908152602001600020600501819055506000600b60003373ffffffffffffffffffffffffffffffffffffffff1673ffffffffffffffffffffffffffffffffffffffff16815260200190815260200160002060008473ffffffffffffffffffffffffffffffffffffffff1673ffffffffffffffffffffffffffffffffffffffff168152602001908152602001600020600401819055506000809054906101000a900473ffffffffffffffffffffffffffffffffffffffff1673ffffffffffffffffffffffffffffffffffffffff166108fc349081150290604051600060405180830381858888f1935050505015801561369d573d6000803e3d6000fd5b50600760009054906101000a900473ffffffffffffffffffffffffffffffffffffffff1673ffffffffffffffffffffffffffffffffffffffff16636a9c5acd82336040518363ffffffff1660e01b8152600401808381526020018273ffffffffffffffffffffffffffffffffffffffff1673ffffffffffffffffffffffffffffffffffffffff16815260200192505050602060405180830381600087803b15801561374757600080fd5b505af115801561375b573d6000803e3d6000fd5b505050506040513d602081101561377157600080fd5b810190808051906020019092919050505061378b57600080fd5b808273ffffffffffffffffffffffffffffffffffffffff167fe542fd70a6e48b1017b003a83582b8b431ba620b546e8febe1d6c063d04d0ad660405160405180910390a35050565b6000600b60003373ffffffffffffffffffffffffffffffffffffffff1673ffffffffffffffffffffffffffffffffffffffff1681526020019081526020016000206000600760009054906101000a900473ffffffffffffffffffffffffffffffffffffffff1673ffffffffffffffffffffffffffffffffffffffff1673ffffffffffffffffffffffffffffffffffffffff16815260200190815260200160002060010154116138ea576040517f08c379a00000000000000000000000000000000000000000000000000000000081526004018080602001828103825260108152602001807f6e6f2072756e6e696e67207374616b650000000000000000000000000000000081525060200191505060405180910390fd5b42613a40600b60003373ffffffffffffffffffffffffffffffffffffffff1673ffffffffffffffffffffffffffffffffffffffff1681526020019081526020016000206000600760009054906101000a900473ffffffffffffffffffffffffffffffffffffffff1673ffffffffffffffffffffffffffffffffffffffff1673ffffffffffffffffffffffffffffffffffffffff16815260200190815260200160002060080154600b60003373ffffffffffffffffffffffffffffffffffffffff1673ffffffffffffffffffffffffffffffffffffffff1681526020019081526020016000206000600760009054906101000a900473ffffffffffffffffffffffffffffffffffffffff1673ffffffffffffffffffffffffffffffffffffffff1673ffffffffffffffffffffffffffffffffffffffff1681526020019081526020016000206003015461532d90919063ffffffff16565b10613a96576040517f08c379a0000000000000000000000000000000000000000000000000000000008152600401808060200182810382526023815260200180615ced6023913960400191505060405180910390fd5b6000600b60003373ffffffffffffffffffffffffffffffffffffffff1673ffffffffffffffffffffffffffffffffffffffff1681526020019081526020016000206000600760009054906101000a900473ffffffffffffffffffffffffffffffffffffffff1673ffffffffffffffffffffffffffffffffffffffff1673ffffffffffffffffffffffffffffffffffffffff168152602001908152602001600020600101549050613b4533612acd565b600b60003373ffffffffffffffffffffffffffffffffffffffff1673ffffffffffffffffffffffffffffffffffffffff1681526020019081526020016000206000600760009054906101000a900473ffffffffffffffffffffffffffffffffffffffff1673ffffffffffffffffffffffffffffffffffffffff1673ffffffffffffffffffffffffffffffffffffffff168152602001908152602001600020600401819055506000600b60003373ffffffffffffffffffffffffffffffffffffffff1673ffffffffffffffffffffffffffffffffffffffff1681526020019081526020016000206000600760009054906101000a900473ffffffffffffffffffffffffffffffffffffffff1673ffffffffffffffffffffffffffffffffffffffff1673ffffffffffffffffffffffffffffffffffffffff16815260200190815260200160002060010181905550600760009054906101000a900473ffffffffffffffffffffffffffffffffffffffff1673ffffffffffffffffffffffffffffffffffffffff1663a9059cbb33836040518363ffffffff1660e01b8152600401808373ffffffffffffffffffffffffffffffffffffffff1673ffffffffffffffffffffffffffffffffffffffff16815260200182815260200192505050602060405180830381600087803b158015613d3a57600080fd5b505af1158015613d4e573d6000803e3d6000fd5b505050506040513d6020811015613d6457600080fd5b8101908080519060200190929190505050613d7e57600080fd5b803373ffffffffffffffffffffffffffffffffffffffff167f896e034966eaaf1adc54acc0f257056febbd300c9e47182cf761982cf1f5e43060405160405180910390a350565b60025481565b6000600b60008373ffffffffffffffffffffffffffffffffffffffff1673ffffffffffffffffffffffffffffffffffffffff16815260200190815260200160002060008473ffffffffffffffffffffffffffffffffffffffff1673ffffffffffffffffffffffffffffffffffffffff16815260200190815260200160002060010154905092915050565b600b60003373ffffffffffffffffffffffffffffffffffffffff1673ffffffffffffffffffffffffffffffffffffffff1681526020019081526020016000206000600760009054906101000a900473ffffffffffffffffffffffffffffffffffffffff1673ffffffffffffffffffffffffffffffffffffffff1673ffffffffffffffffffffffffffffffffffffffff16815260200190815260200160002060080154600b60003373ffffffffffffffffffffffffffffffffffffffff1673ffffffffffffffffffffffffffffffffffffffff1681526020019081526020016000206000600760009054906101000a900473ffffffffffffffffffffffffffffffffffffffff1673ffffffffffffffffffffffffffffffffffffffff1673ffffffffffffffffffffffffffffffffffffffff1681526020019081526020016000206003015442031061400e576040517f08c379a00000000000000000000000000000000000000000000000000000000081526004018080602001828103825260178152602001807f63757272656e74207374616b696e67206578706972656400000000000000000081525060200191505060405180910390fd5b61403a600760009054906101000a900473ffffffffffffffffffffffffffffffffffffffff1682615349565b600760009054906101000a900473ffffffffffffffffffffffffffffffffffffffff1673ffffffffffffffffffffffffffffffffffffffff166323b872dd3330846040518463ffffffff1660e01b8152600401808473ffffffffffffffffffffffffffffffffffffffff1673ffffffffffffffffffffffffffffffffffffffff1681526020018373ffffffffffffffffffffffffffffffffffffffff1673ffffffffffffffffffffffffffffffffffffffff1681526020018281526020019350505050602060405180830381600087803b15801561411757600080fd5b505af115801561412b573d6000803e3d6000fd5b505050506040513d602081101561414157600080fd5b810190808051906020019092919050505061415b57600080fd5b803373ffffffffffffffffffffffffffffffffffffffff167f87cc10241523077a91c98e7f42c67bc94408b811dcfb4202150e2935e471b08660405160405180910390a350565b336000809054906101000a900473ffffffffffffffffffffffffffffffffffffffff1673ffffffffffffffffffffffffffffffffffffffff168173ffffffffffffffffffffffffffffffffffffffff16148061424b5750600a60009054906101000a900473ffffffffffffffffffffffffffffffffffffffff1673ffffffffffffffffffffffffffffffffffffffff168173ffffffffffffffffffffffffffffffffffffffff16145b61425457600080fd5b816002819055505050565b6000600b60008373ffffffffffffffffffffffffffffffffffffffff1673ffffffffffffffffffffffffffffffffffffffff16815260200190815260200160002060008473ffffffffffffffffffffffffffffffffffffffff1673ffffffffffffffffffffffffffffffffffffffff16815260200190815260200160002060020154905092915050565b60045481565b6000600b60008373ffffffffffffffffffffffffffffffffffffffff1673ffffffffffffffffffffffffffffffffffffffff1681526020019081526020016000206000600760009054906101000a900473ffffffffffffffffffffffffffffffffffffffff1673ffffffffffffffffffffffffffffffffffffffff1673ffffffffffffffffffffffffffffffffffffffff168152602001908152602001600020600701549050919050565b336000809054906101000a900473ffffffffffffffffffffffffffffffffffffffff1673ffffffffffffffffffffffffffffffffffffffff168173ffffffffffffffffffffffffffffffffffffffff1614806144435750600a60009054906101000a900473ffffffffffffffffffffffffffffffffffffffff1673ffffffffffffffffffffffffffffffffffffffff168173ffffffffffffffffffffffffffffffffffffffff16145b61444c57600080fd5b6144568383615af7565b505050565b60086020528060005260406000206000915090508060000160009054906101000a900460ff16908060010154905082565b6000809054906101000a900473ffffffffffffffffffffffffffffffffffffffff1673ffffffffffffffffffffffffffffffffffffffff163373ffffffffffffffffffffffffffffffffffffffff16146144e557600080fd5b806000806101000a81548173ffffffffffffffffffffffffffffffffffffffff021916908373ffffffffffffffffffffffffffffffffffffffff1602179055508073ffffffffffffffffffffffffffffffffffffffff163373ffffffffffffffffffffffffffffffffffffffff167f8be0079c531659141344cd1fd0a4f28419497f9722a3daafe3b4186f6b6457e060405160405180910390a350565b6000600b60008373ffffffffffffffffffffffffffffffffffffffff1673ffffffffffffffffffffffffffffffffffffffff1681526020019081526020016000206000600760009054906101000a900473ffffffffffffffffffffffffffffffffffffffff1673ffffffffffffffffffffffffffffffffffffffff1673ffffffffffffffffffffffffffffffffffffffff168152602001908152602001600020600201549050919050565b80600b60003373ffffffffffffffffffffffffffffffffffffffff1673ffffffffffffffffffffffffffffffffffffffff16815260200190815260200160002060008473ffffffffffffffffffffffffffffffffffffffff1673ffffffffffffffffffffffffffffffffffffffff168152602001908152602001600020600101541015614722576040517f08c379a000000000000000000000000000000000000000000000000000000000815260040180806020018281038252601e8152602001807f696e73756666696369656e7420616d6f756e7420696e206661726d696e67000081525060200191505060405180910390fd5b600760009054906101000a900473ffffffffffffffffffffffffffffffffffffffff1673ffffffffffffffffffffffffffffffffffffffff168273ffffffffffffffffffffffffffffffffffffffff1614156147e6576040517f08c379a000000000000000000000000000000000000000000000000000000000815260040180806020018281038252601f8152602001807f757365207769746864726177206f66207374616b696e6720696e73746561640081525060200191505060405180910390fd5b6147f08233611d80565b600b60003373ffffffffffffffffffffffffffffffffffffffff1673ffffffffffffffffffffffffffffffffffffffff16815260200190815260200160002060008473ffffffffffffffffffffffffffffffffffffffff1673ffffffffffffffffffffffffffffffffffffffff1681526020019081526020016000206004018190555061490581600b60003373ffffffffffffffffffffffffffffffffffffffff1673ffffffffffffffffffffffffffffffffffffffff16815260200190815260200160002060008573ffffffffffffffffffffffffffffffffffffffff1673ffffffffffffffffffffffffffffffffffffffff168152602001908152602001600020600101546152c690919063ffffffff16565b600b60003373ffffffffffffffffffffffffffffffffffffffff1673ffffffffffffffffffffffffffffffffffffffff16815260200190815260200160002060008473ffffffffffffffffffffffffffffffffffffffff1673ffffffffffffffffffffffffffffffffffffffff1681526020019081526020016000206001018190555042600b60003373ffffffffffffffffffffffffffffffffffffffff1673ffffffffffffffffffffffffffffffffffffffff16815260200190815260200160002060008473ffffffffffffffffffffffffffffffffffffffff1673ffffffffffffffffffffffffffffffffffffffff1681526020019081526020016000206003018190555042600b60003373ffffffffffffffffffffffffffffffffffffffff1673ffffffffffffffffffffffffffffffffffffffff16815260200190815260200160002060008473ffffffffffffffffffffffffffffffffffffffff1673ffffffffffffffffffffffffffffffffffffffff168152602001908152602001600020600501819055508173ffffffffffffffffffffffffffffffffffffffff1663a9059cbb33836040518363ffffffff1660e01b8152600401808373ffffffffffffffffffffffffffffffffffffffff1673ffffffffffffffffffffffffffffffffffffffff16815260200182815260200192505050602060405180830381600087803b158015614b1757600080fd5b505af1158015614b2b573d6000803e3d6000fd5b505050506040513d6020811015614b4157600080fd5b8101908080519060200190929190505050614b5b57600080fd5b803373ffffffffffffffffffffffffffffffffffffffff167f896e034966eaaf1adc54acc0f257056febbd300c9e47182cf761982cf1f5e43060405160405180910390a35050565b60035481565b6000600b60003373ffffffffffffffffffffffffffffffffffffffff1673ffffffffffffffffffffffffffffffffffffffff16815260200190815260200160002060008473ffffffffffffffffffffffffffffffffffffffff1673ffffffffffffffffffffffffffffffffffffffff1681526020019081526020016000206001015414614c9e576040517f08c379a000000000000000000000000000000000000000000000000000000000815260040180806020018281038252600f8152602001807f416c72656164792072756e6e696e67000000000000000000000000000000000081525060200191505060405180910390fd5b600860008373ffffffffffffffffffffffffffffffffffffffff1673ffffffffffffffffffffffffffffffffffffffff16815260200190815260200160002060000160009054906101000a900460ff16614d60576040517f08c379a00000000000000000000000000000000000000000000000000000000081526004018080602001828103825260138152602001807f546f6b656e20646f65736e27742065786973740000000000000000000000000081525060200191505060405180910390fd5b600760009054906101000a900473ffffffffffffffffffffffffffffffffffffffff1673ffffffffffffffffffffffffffffffffffffffff168273ffffffffffffffffffffffffffffffffffffffff161415614f9357614dbf33612acd565b600b60003373ffffffffffffffffffffffffffffffffffffffff1673ffffffffffffffffffffffffffffffffffffffff16815260200190815260200160002060008473ffffffffffffffffffffffffffffffffffffffff1673ffffffffffffffffffffffffffffffffffffffff16815260200190815260200160002060040181905550600254600b60003373ffffffffffffffffffffffffffffffffffffffff1673ffffffffffffffffffffffffffffffffffffffff16815260200190815260200160002060008473ffffffffffffffffffffffffffffffffffffffff1673ffffffffffffffffffffffffffffffffffffffff16815260200190815260200160002060080181905550600860008373ffffffffffffffffffffffffffffffffffffffff1673ffffffffffffffffffffffffffffffffffffffff16815260200190815260200160002060010154600b60003373ffffffffffffffffffffffffffffffffffffffff1673ffffffffffffffffffffffffffffffffffffffff16815260200190815260200160002060008473ffffffffffffffffffffffffffffffffffffffff1673ffffffffffffffffffffffffffffffffffffffff16815260200190815260200160002060070181905550615021565b614f9d8233611d80565b600b60003373ffffffffffffffffffffffffffffffffffffffff1673ffffffffffffffffffffffffffffffffffffffff16815260200190815260200160002060008473ffffffffffffffffffffffffffffffffffffffff1673ffffffffffffffffffffffffffffffffffffffff168152602001908152602001600020600401819055505b80600b60003373ffffffffffffffffffffffffffffffffffffffff1673ffffffffffffffffffffffffffffffffffffffff16815260200190815260200160002060008473ffffffffffffffffffffffffffffffffffffffff1673ffffffffffffffffffffffffffffffffffffffff1681526020019081526020016000206001018190555061513781600b60003373ffffffffffffffffffffffffffffffffffffffff1673ffffffffffffffffffffffffffffffffffffffff16815260200190815260200160002060008573ffffffffffffffffffffffffffffffffffffffff1673ffffffffffffffffffffffffffffffffffffffff1681526020019081526020016000206002015461532d90919063ffffffff16565b600b60003373ffffffffffffffffffffffffffffffffffffffff1673ffffffffffffffffffffffffffffffffffffffff16815260200190815260200160002060008473ffffffffffffffffffffffffffffffffffffffff1673ffffffffffffffffffffffffffffffffffffffff1681526020019081526020016000206002018190555042600b60003373ffffffffffffffffffffffffffffffffffffffff1673ffffffffffffffffffffffffffffffffffffffff16815260200190815260200160002060008473ffffffffffffffffffffffffffffffffffffffff1673ffffffffffffffffffffffffffffffffffffffff1681526020019081526020016000206003018190555042600b60003373ffffffffffffffffffffffffffffffffffffffff1673ffffffffffffffffffffffffffffffffffffffff16815260200190815260200160002060008473ffffffffffffffffffffffffffffffffffffffff1673ffffffffffffffffffffffffffffffffffffffff168152602001908152602001600020600501819055505050565b6000828211156152d257fe5b818303905092915050565b6000808314156152f0576000905061530e565b600082840290508284828161530157fe5b041461530957fe5b809150505b92915050565b60008082848161532057fe5b0490508091505092915050565b60008082840190508381101561533f57fe5b8091505092915050565b600860008373ffffffffffffffffffffffffffffffffffffffff1673ffffffffffffffffffffffffffffffffffffffff16815260200190815260200160002060000160009054906101000a900460ff1661540b576040517f08c379a00000000000000000000000000000000000000000000000000000000081526004018080602001828103825260138152602001807f546f6b656e20646f65736e27742065786973740000000000000000000000000081525060200191505060405180910390fd5b6000600b60003373ffffffffffffffffffffffffffffffffffffffff1673ffffffffffffffffffffffffffffffffffffffff16815260200190815260200160002060008473ffffffffffffffffffffffffffffffffffffffff1673ffffffffffffffffffffffffffffffffffffffff1681526020019081526020016000206001015411615500576040517f08c379a00000000000000000000000000000000000000000000000000000000081526004018080602001828103825260188152602001807f6e6f2072756e6e696e67206661726d696e672f7374616b65000000000000000081525060200191505060405180910390fd5b600760009054906101000a900473ffffffffffffffffffffffffffffffffffffffff1673ffffffffffffffffffffffffffffffffffffffff168273ffffffffffffffffffffffffffffffffffffffff1614156157335761555f33612acd565b600b60003373ffffffffffffffffffffffffffffffffffffffff1673ffffffffffffffffffffffffffffffffffffffff16815260200190815260200160002060008473ffffffffffffffffffffffffffffffffffffffff1673ffffffffffffffffffffffffffffffffffffffff16815260200190815260200160002060040181905550600254600b60003373ffffffffffffffffffffffffffffffffffffffff1673ffffffffffffffffffffffffffffffffffffffff16815260200190815260200160002060008473ffffffffffffffffffffffffffffffffffffffff1673ffffffffffffffffffffffffffffffffffffffff16815260200190815260200160002060080181905550600860008373ffffffffffffffffffffffffffffffffffffffff1673ffffffffffffffffffffffffffffffffffffffff16815260200190815260200160002060010154600b60003373ffffffffffffffffffffffffffffffffffffffff1673ffffffffffffffffffffffffffffffffffffffff16815260200190815260200160002060008473ffffffffffffffffffffffffffffffffffffffff1673ffffffffffffffffffffffffffffffffffffffff168152602001908152602001600020600701819055506157c1565b61573d8233611d80565b600b60003373ffffffffffffffffffffffffffffffffffffffff1673ffffffffffffffffffffffffffffffffffffffff16815260200190815260200160002060008473ffffffffffffffffffffffffffffffffffffffff1673ffffffffffffffffffffffffffffffffffffffff168152602001908152602001600020600401819055505b61585381600b60003373ffffffffffffffffffffffffffffffffffffffff1673ffffffffffffffffffffffffffffffffffffffff16815260200190815260200160002060008573ffffffffffffffffffffffffffffffffffffffff1673ffffffffffffffffffffffffffffffffffffffff1681526020019081526020016000206001015461532d90919063ffffffff16565b600b60003373ffffffffffffffffffffffffffffffffffffffff1673ffffffffffffffffffffffffffffffffffffffff16815260200190815260200160002060008473ffffffffffffffffffffffffffffffffffffffff1673ffffffffffffffffffffffffffffffffffffffff1681526020019081526020016000206001018190555061596881600b60003373ffffffffffffffffffffffffffffffffffffffff1673ffffffffffffffffffffffffffffffffffffffff16815260200190815260200160002060008573ffffffffffffffffffffffffffffffffffffffff1673ffffffffffffffffffffffffffffffffffffffff1681526020019081526020016000206002015461532d90919063ffffffff16565b600b60003373ffffffffffffffffffffffffffffffffffffffff1673ffffffffffffffffffffffffffffffffffffffff16815260200190815260200160002060008473ffffffffffffffffffffffffffffffffffffffff1673ffffffffffffffffffffffffffffffffffffffff1681526020019081526020016000206002018190555042600b60003373ffffffffffffffffffffffffffffffffffffffff1673ffffffffffffffffffffffffffffffffffffffff16815260200190815260200160002060008473ffffffffffffffffffffffffffffffffffffffff1673ffffffffffffffffffffffffffffffffffffffff1681526020019081526020016000206003018190555042600b60003373ffffffffffffffffffffffffffffffffffffffff1673ffffffffffffffffffffffffffffffffffffffff16815260200190815260200160002060008473ffffffffffffffffffffffffffffffffffffffff1673ffffffffffffffffffffffffffffffffffffffff168152602001908152602001600020600501819055505050565b600860008373ffffffffffffffffffffffffffffffffffffffff1673ffffffffffffffffffffffffffffffffffffffff16815260200190815260200160002060000160009054906101000a900460ff1615615bba576040517f08c379a00000000000000000000000000000000000000000000000000000000081526004018080602001828103825260148152602001807f746f6b656e20616c72656164792065786973747300000000000000000000000081525060200191505060405180910390fd5b604051806040016040528060011515815260200182815250600860008473ffffffffffffffffffffffffffffffffffffffff1673ffffffffffffffffffffffffffffffffffffffff16815260200190815260200160002060008201518160000160006101000a81548160ff0219169083151502179055506020820151816001015590505060098290806001815401808255809150509060018203906000526020600020016000909192909190916101000a81548173ffffffffffffffffffffffffffffffffffffffff021916908373ffffffffffffffffffffffffffffffffffffffff16021790555050808273ffffffffffffffffffffffffffffffffffffffff167ff4c563a3ea86ff1f4275e8c207df0375a51963f2b831b7bf4da8be938d92876c60405160405180910390a3505056fe6e6f7420636c61696d61626c65206265666f7265207374616b696e6720706572696f647374616b6520616d6f756e742073686f756c6420626520657175616c2f67726561746572207468616e206d696e207374616b65206c696d6974a265627a7a723158201fa358cda7c4f27aaa55ba779c155903778b50fbdb961523b1be9f722198f12464736f6c63430005100032",
  "source": "// SPDX-License-Identifier: UNLICENSED\npragma solidity ^0.5.0;\n\nimport \"./Owned.sol\";\nimport \"./BREE.sol\";\nimport \"./ERC20Interface.sol\";\nimport \"./SafeMath.sol\";\n\ncontract BREE_STAKE_FARM is Owned{\n    \n    using SafeMath for uint256;\n    \n    uint256 public yieldCollectionFee = 0.01 ether;\n    uint256 public stakingPeriod = 3 minutes;\n    uint256 public stakeClaimFee = 0.001 ether;\n    uint256 public minStakeLimit = 500 * 10 **(18); //500 BREE\n    uint256 public totalYield;\n    uint256 public totalRewards;\n\n    Token public bree;\n    \n    struct Tokens{\n        bool exists;\n        uint256 rate;\n    }\n    \n    mapping(address => Tokens) public tokens;\n    address[] TokensAddresses;\n    address governance;\n    \n    struct DepositedToken{\n        bool    whitelisted;\n        uint256 activeDeposit;\n        uint256 totalDeposits;\n        uint256 startTime;\n        uint256 pendingGains;\n        uint256 lastClaimedDate;\n        uint256 totalGained;\n        uint    rate;\n        uint    period;\n    }\n   \n    \n    mapping(address => mapping(address => DepositedToken)) users;\n    \n    event TokenAdded(address indexed tokenAddress, uint256 indexed APY);\n    event TokenRemoved(address indexed tokenAddress, uint256 indexed APY);\n    event FarmingRateChanged(address indexed tokenAddress, uint256 indexed newAPY);\n    event YieldCollectionFeeChanged(uint256 indexed yieldCollectionFee);\n    event FarmingStarted(address indexed _tokenAddress, uint256 indexed _amount);\n    event YieldCollected(address indexed _tokenAddress, uint256 indexed _yield);\n    event AddedToExistingFarm(address indexed _tokenAddress, uint256 indexed tokens);\n    \n    event Staked(address indexed staker, uint256 indexed tokens);\n    event AddedToExistingStake(address indexed staker, uint256 indexed tokens);\n    event StakingRateChanged(uint256 indexed newAPY);\n    event TokensClaimed(address indexed claimer, uint256 indexed stakedTokens);\n    event RewardClaimed(address indexed claimer, uint256 indexed reward);\n    \n    event GovernanceSet(address indexed governanceAddress);\n    \n    modifier validStake(uint256 stakeAmount){\n        require(stakeAmount >= minStakeLimit, \"stake amount should be equal/greater than min stake limit\");\n        _;\n    }\n    \n    modifier OwnerOrGovernance(address _caller){\n        require(_caller == owner || _caller == governance);\n        _;\n    }\n    \n    constructor(address _tokenAddress) public {\n        bree = Token(_tokenAddress);\n        \n        // add bree token to ecosystem\n        _addToken(_tokenAddress, 40); // 40 apy initially\n    }\n    \n    //#########################################################################################################################################################//\n    //####################################################FARMING EXTERNAL FUNCTIONS###########################################################################//\n    //#########################################################################################################################################################// \n    \n    // ------------------------------------------------------------------------\n    // Add assets to farm\n    // @param _tokenAddress address of the token asset\n    // @param _amount amount of tokens to deposit\n    // ------------------------------------------------------------------------\n    function Farm(address _tokenAddress, uint256 _amount) external{\n        require(_tokenAddress != address(bree), \"Use staking instead\"); \n        \n        // add to farm\n        _newDeposit(_tokenAddress, _amount);\n        \n        // transfer tokens from user to the contract balance\n        require(ERC20Interface(_tokenAddress).transferFrom(msg.sender, address(this), _amount));\n        \n        emit FarmingStarted(_tokenAddress, _amount);\n    }\n    \n    // ------------------------------------------------------------------------\n    // Add more deposits to already running farm\n    // @param _tokenAddress address of the token asset\n    // @param _amount amount of tokens to deposit\n    // ------------------------------------------------------------------------\n    function AddToFarm(address _tokenAddress, uint256 _amount) external{\n        require(_tokenAddress != address(bree), \"use staking instead\");\n        _addToExisting(_tokenAddress, _amount);\n        \n        // move the tokens from the caller to the contract address\n        require(ERC20Interface(_tokenAddress).transferFrom(msg.sender,address(this), _amount));\n        \n        emit AddedToExistingFarm(_tokenAddress, _amount);\n    }\n    \n    // ------------------------------------------------------------------------\n    // Withdraw accumulated yield\n    // @param _tokenAddress address of the token asset\n    // @required must pay yield claim fee\n    // ------------------------------------------------------------------------\n    function Yield(address _tokenAddress) external payable {\n        require(msg.value >= yieldCollectionFee, \"should pay exact claim fee\");\n        require(PendingYield(_tokenAddress, msg.sender) > 0, \"No pending yield\");\n        require(tokens[_tokenAddress].exists, \"Token doesn't exist\");\n        require(_tokenAddress != address(bree), \"use staking instead\");\n    \n        uint256 _pendingYield = PendingYield(_tokenAddress, msg.sender);\n        \n        // Global stats update\n        totalYield = totalYield.add(_pendingYield);\n        \n        // update the record\n        users[msg.sender][_tokenAddress].totalGained = users[msg.sender][_tokenAddress].totalGained.add(_pendingYield);\n        users[msg.sender][_tokenAddress].lastClaimedDate = now;\n        users[msg.sender][_tokenAddress].pendingGains = 0;\n        \n        // transfer fee to the owner\n        owner.transfer(msg.value);\n        \n        // mint more tokens inside token contract equivalent to _pendingYield\n        require(bree.MintTokens(_pendingYield, msg.sender));\n        \n        emit YieldCollected(_tokenAddress, _pendingYield);\n    }\n    \n    // ------------------------------------------------------------------------\n    // Withdraw any amount of tokens, the contract will update the farming \n    // @param _tokenAddress address of the token asset\n    // @param _amount amount of tokens to deposit\n    // ------------------------------------------------------------------------\n    function WithdrawFarmedTokens(address _tokenAddress, uint256 _amount) external {\n        require(users[msg.sender][_tokenAddress].activeDeposit >= _amount, \"insufficient amount in farming\");\n        require(_tokenAddress != address(bree), \"use withdraw of staking instead\");\n        \n        // update farming stats\n            // check if we have any pending yield, add it to previousYield var\n            users[msg.sender][_tokenAddress].pendingGains = PendingYield(_tokenAddress, msg.sender);\n            // update amount \n            users[msg.sender][_tokenAddress].activeDeposit = users[msg.sender][_tokenAddress].activeDeposit.sub(_amount);\n            // update farming start time -- new farming will begin from this time onwards\n            users[msg.sender][_tokenAddress].startTime = now;\n            // reset last claimed figure as well -- new farming will begin from this time onwards\n            users[msg.sender][_tokenAddress].lastClaimedDate = now;\n        \n        // withdraw the tokens and move from contract to the caller\n        require(ERC20Interface(_tokenAddress).transfer(msg.sender, _amount));\n        \n        emit TokensClaimed(msg.sender, _amount);\n    }\n    \n    //#########################################################################################################################################################//\n    //####################################################STAKING EXTERNAL FUNCTIONS###########################################################################//\n    //#########################################################################################################################################################//    \n    \n    // ------------------------------------------------------------------------\n    // Start staking\n    // @param _tokenAddress address of the token asset\n    // @param _amount amount of tokens to deposit\n    // ------------------------------------------------------------------------\n    function Stake(uint256 _amount) external validStake(_amount) {\n        // add new stake\n        _newDeposit(address(bree), _amount);\n        \n        // transfer tokens from user to the contract balance\n        require(bree.transferFrom(msg.sender, address(this), _amount));\n        \n        emit Staked(msg.sender, _amount);\n        \n    }\n    \n    // ------------------------------------------------------------------------\n    // Add more deposits to already running farm\n    // @param _tokenAddress address of the token asset\n    // @param _amount amount of tokens to deposit\n    // ------------------------------------------------------------------------\n    function AddToStake(uint256 _amount) external {\n        require(now - users[msg.sender][address(bree)].startTime < users[msg.sender][address(bree)].period, \"current staking expired\");\n        _addToExisting(address(bree), _amount);\n\n        // move the tokens from the caller to the contract address\n        require(bree.transferFrom(msg.sender,address(this), _amount));\n        \n        emit AddedToExistingStake(msg.sender, _amount);\n    }\n    \n    // ------------------------------------------------------------------------\n    // Claim reward and staked tokens\n    // @required user must be a staker\n    // @required must be claimable\n    // ------------------------------------------------------------------------\n    function ClaimStakedTokens() external {\n        //require(users[msg.sender][address(bree)].running, \"no running stake\");\n        require(users[msg.sender][address(bree)].activeDeposit > 0, \"no running stake\");\n        require(users[msg.sender][address(bree)].startTime.add(users[msg.sender][address(bree)].period) < now, \"not claimable before staking period\");\n        \n        uint256 _currentDeposit = users[msg.sender][address(bree)].activeDeposit;\n        \n        // check if we have any pending reward, add it to pendingGains var\n        users[msg.sender][address(bree)].pendingGains = PendingReward(msg.sender);\n        // update amount \n        users[msg.sender][address(bree)].activeDeposit = 0;\n        \n        // transfer staked tokens\n        require(bree.transfer(msg.sender, _currentDeposit));\n        \n        emit TokensClaimed(msg.sender, _currentDeposit);\n        \n    }\n    \n    // ------------------------------------------------------------------------\n    // Claim reward and staked tokens\n    // @required user must be a staker\n    // @required must be claimable\n    // ------------------------------------------------------------------------\n    function ClaimReward() external payable {\n        require(msg.value >= stakeClaimFee, \"should pay exact claim fee\");\n        require(PendingReward(msg.sender) > 0, \"nothing pending to claim\");\n    \n        uint256 _pendingReward = PendingReward(msg.sender);\n        \n        // add claimed reward to global stats\n        totalRewards = totalRewards.add(_pendingReward);\n        // add the reward to total claimed rewards\n        users[msg.sender][address(bree)].totalGained = users[msg.sender][address(bree)].totalGained.add(_pendingReward);\n        // update lastClaim amount\n        users[msg.sender][address(bree)].lastClaimedDate = now;\n        // reset previous rewards\n        users[msg.sender][address(bree)].pendingGains = 0;\n        \n        // transfer the claim fee to the owner\n        owner.transfer(msg.value);\n        \n        // mint more tokens inside token contract\n        require(bree.MintTokens(_pendingReward, msg.sender));\n         \n        emit RewardClaimed(msg.sender, _pendingReward);\n    }\n    \n    //#########################################################################################################################################################//\n    //##########################################################FARMING QUERIES################################################################################//\n    //#########################################################################################################################################################//\n    \n    // ------------------------------------------------------------------------\n    // Query to get the pending yield\n    // @param _tokenAddress address of the token asset\n    // ------------------------------------------------------------------------\n    function PendingYield(address _tokenAddress, address _caller) public view returns(uint256 _pendingRewardWeis){\n        uint256 _totalFarmingTime = now.sub(users[_caller][_tokenAddress].lastClaimedDate);\n        \n        uint256 _reward_token_second = ((tokens[_tokenAddress].rate).mul(10 ** 21)).div(365 days); // added extra 10^21\n        \n        uint256 yield = ((users[_caller][_tokenAddress].activeDeposit).mul(_totalFarmingTime.mul(_reward_token_second))).div(10 ** 27); // remove extra 10^21 // 10^2 are for 100 (%)\n        \n        return yield.add(users[_caller][_tokenAddress].pendingGains);\n    }\n    \n    // ------------------------------------------------------------------------\n    // Query to get the active farm of the user\n    // @param farming asset/ token address\n    // ------------------------------------------------------------------------\n    function ActiveFarmDeposit(address _tokenAddress, address _user) external view returns(uint256 _activeDeposit){\n        return users[_user][_tokenAddress].activeDeposit;\n    }\n    \n    // ------------------------------------------------------------------------\n    // Query to get the total farming of the user\n    // @param farming asset/ token address\n    // ------------------------------------------------------------------------\n    function YourTotalFarmingTillToday(address _tokenAddress, address _user) external view returns(uint256 _totalFarming){\n        return users[_user][_tokenAddress].totalDeposits;\n    }\n    \n    // ------------------------------------------------------------------------\n    // Query to get the time of last farming of user\n    // ------------------------------------------------------------------------\n    function LastFarmedOn(address _tokenAddress, address _user) external view returns(uint256 _unixLastFarmedTime){\n        return users[_user][_tokenAddress].startTime;\n    }\n    \n    // ------------------------------------------------------------------------\n    // Query to get total earned rewards from particular farming\n    // @param farming asset/ token address\n    // ------------------------------------------------------------------------\n    function TotalFarmingRewards(address _tokenAddress, address _user) external view returns(uint256 _totalEarned){\n        return users[_user][_tokenAddress].totalGained;\n    }\n    \n    //#########################################################################################################################################################//\n    //####################################################FARMING ONLY OWNER FUNCTIONS#########################################################################//\n    //#########################################################################################################################################################//\n    \n    // ------------------------------------------------------------------------\n    // Links governance contract to this contract\n    // @param _govAddress address of the governance contract\n    // @required only owner \n    // ------------------------------------------------------------------------    \n    function setGovernanceContract(address _govAddress) external onlyOwner {\n        governance = _govAddress;\n        emit GovernanceSet(_govAddress);\n    }\n    \n    // ------------------------------------------------------------------------\n    // Add supported tokens\n    // @param _tokenAddress address of the token asset\n    // @param _farmingRate rate applied for farming yield to produce\n    // @required only owner or governance contract\n    // ------------------------------------------------------------------------    \n    function AddToken(address _tokenAddress, uint256 _rate) public OwnerOrGovernance(msg.sender) {\n        _addToken(_tokenAddress, _rate);\n    }\n    \n    // ------------------------------------------------------------------------\n    // Remove tokens if no longer supported\n    // @param _tokenAddress address of the token asset\n    // @required only owner or governance contract\n    // ------------------------------------------------------------------------  \n    function RemoveToken(address _tokenAddress) public OwnerOrGovernance(msg.sender) {\n        \n        require(tokens[_tokenAddress].exists, \"token doesn't exist\");\n        \n        tokens[_tokenAddress].exists = false;\n        \n        emit TokenRemoved(_tokenAddress, tokens[_tokenAddress].rate);\n    }\n    \n    // ------------------------------------------------------------------------\n    // Change farming rate of the supported token\n    // @param _tokenAddress address of the token asset\n    // @param _newFarmingRate new rate applied for farming yield to produce\n    // @required only owner or governance contract\n    // ------------------------------------------------------------------------  \n    function ChangeFarmingRate(address _tokenAddress, uint256 _newFarmingRate) public OwnerOrGovernance(msg.sender) {\n        \n        require(tokens[_tokenAddress].exists, \"token doesn't exist\");\n        \n        tokens[_tokenAddress].rate = _newFarmingRate;\n        \n        emit FarmingRateChanged(_tokenAddress, _newFarmingRate);\n    }\n\n    // ------------------------------------------------------------------------\n    // Change Yield collection fee\n    // @param _fee fee to claim the yield\n    // @required only owner or governance contract\n    // ------------------------------------------------------------------------     \n    function SetYieldCollectionFee(uint256 _fee) public OwnerOrGovernance(msg.sender){\n        yieldCollectionFee = _fee;\n        emit YieldCollectionFeeChanged(_fee);\n    }\n    \n    //#########################################################################################################################################################//\n    //####################################################STAKING QUERIES######################################################################################//\n    //#########################################################################################################################################################//\n    \n    // ------------------------------------------------------------------------\n    // Query to get the pending reward\n    // ------------------------------------------------------------------------\n    function PendingReward(address _caller) public view returns(uint256 _pendingReward){\n        uint256 _totalStakedTime = 0;\n        uint256 expiryDate = (users[_caller][address(bree)].period).add(users[_caller][address(bree)].startTime);\n        \n        if(now < expiryDate)\n            _totalStakedTime = now.sub(users[_caller][address(bree)].lastClaimedDate);\n        else{\n            if(users[_caller][address(bree)].lastClaimedDate >= expiryDate) // if claimed after expirydate already\n                _totalStakedTime = 0;\n            else\n                _totalStakedTime = expiryDate.sub(users[_caller][address(bree)].lastClaimedDate);\n        }\n            \n        uint256 _reward_token_second = ((users[_caller][address(bree)].rate).mul(10 ** 21)); // added extra 10^21\n        uint256 reward =  ((users[_caller][address(bree)].activeDeposit).mul(_totalStakedTime.mul(_reward_token_second))).div(10 ** 27); // remove extra 10^21 // the two extra 10^2 is for 100 (%) // another two extra 10^4 is for decimals to be allowed\n        reward = reward.div(365 days);\n        return (reward.add(users[_caller][address(bree)].pendingGains));\n    }\n    \n    // ------------------------------------------------------------------------\n    // Query to get the active stake of the user\n    // ------------------------------------------------------------------------\n    function YourActiveStake(address _user) external view returns(uint256 _activeStake){\n        return users[_user][address(bree)].activeDeposit;\n    }\n    \n    // ------------------------------------------------------------------------\n    // Query to get the total stakes of the user\n    // ------------------------------------------------------------------------\n    function YourTotalStakesTillToday(address _user) external view returns(uint256 _totalStakes){\n        return users[_user][address(bree)].totalDeposits;\n    }\n    \n    // ------------------------------------------------------------------------\n    // Query to get the time of last stake of user\n    // ------------------------------------------------------------------------\n    function LastStakedOn(address _user) public view returns(uint256 _unixLastStakedTime){\n        return users[_user][address(bree)].startTime;\n    }\n    \n    // ------------------------------------------------------------------------\n    // Query to get total earned rewards from stake\n    // ------------------------------------------------------------------------\n    function TotalStakeRewardsClaimedTillToday(address _user) external view returns(uint256 _totalEarned){\n        return users[_user][address(bree)].totalGained;\n    }\n    \n    // ------------------------------------------------------------------------\n    // Query to get the staking rate\n    // ------------------------------------------------------------------------\n    function LatestStakingRate() external view returns(uint256 APY){\n        return tokens[address(bree)].rate;\n    }\n    \n    // ------------------------------------------------------------------------\n    // Query to get the staking rate you staked at\n    // ------------------------------------------------------------------------\n    function YourStakingRate(address _user) external view returns(uint256 _stakingRate){\n        return users[_user][address(bree)].rate;\n    }\n    \n    // ------------------------------------------------------------------------\n    // Query to get the staking period you staked at\n    // ------------------------------------------------------------------------\n    function YourStakingPeriod(address _user) external view returns(uint256 _stakingPeriod){\n        return users[_user][address(bree)].period;\n    }\n    \n    // ------------------------------------------------------------------------\n    // Query to get the staking time left\n    // ------------------------------------------------------------------------\n    function StakingTimeLeft(address _user) external view returns(uint256 _secsLeft){\n        uint256 left = 0; \n        uint256 expiryDate = (users[_user][address(bree)].period).add(LastStakedOn(_user));\n        \n        if(now < expiryDate)\n            left = expiryDate.sub(now);\n            \n        return left;\n    }\n    \n    //#########################################################################################################################################################//\n    //####################################################STAKING ONLY OWNER FUNCTION##########################################################################//\n    //#########################################################################################################################################################//\n    \n    // ------------------------------------------------------------------------\n    // Change staking rate\n    // @param _newStakingRate new rate applied for staking\n    // @required only owner or governance contract\n    // ------------------------------------------------------------------------  \n    function ChangeStakingRate(uint256 _newStakingRate) public OwnerOrGovernance(msg.sender){\n        \n        tokens[address(bree)].rate = _newStakingRate;\n        \n        emit StakingRateChanged(_newStakingRate);\n    }\n    \n    // ------------------------------------------------------------------------\n    // Change the min stake limit\n    // @param _minStakeLimit minimum stake limit value\n    // @required only callable by owner or governance contract\n    // ------------------------------------------------------------------------\n    function SetMinStakeLimit(uint256 _minStakeLimit) public OwnerOrGovernance(msg.sender){\n       minStakeLimit = _minStakeLimit;\n    }\n    \n    // ------------------------------------------------------------------------\n    // Change the staking period\n    // @param _seconds number of seconds to stake (n days = n*24*60*60)\n    // @required only callable by owner or governance contract\n    // ------------------------------------------------------------------------\n    function SetStakingPeriod(uint256 _seconds) public OwnerOrGovernance(msg.sender){\n       stakingPeriod = _seconds;\n    }\n    \n    // ------------------------------------------------------------------------\n    // Change the staking claim fee\n    // @param _fee claim fee in weis\n    // @required only callable by owner or governance contract\n    // ------------------------------------------------------------------------\n    function SetClaimFee(uint256 _fee) public OwnerOrGovernance(msg.sender){\n       stakeClaimFee = _fee;\n    }\n    \n    //#########################################################################################################################################################//\n    //################################################################COMMON UTILITIES#########################################################################//\n    //#########################################################################################################################################################//    \n    \n    // ------------------------------------------------------------------------\n    // Internal function to add new deposit\n    // ------------------------------------------------------------------------        \n    function _newDeposit(address _tokenAddress, uint256 _amount) internal{\n        require(users[msg.sender][_tokenAddress].activeDeposit ==  0, \"Already running\");\n        require(tokens[_tokenAddress].exists, \"Token doesn't exist\");\n        \n        // add that token into the contract balance\n        // check if we have any pending reward/yield, add it to pendingGains variable\n        if(_tokenAddress == address(bree)){\n            users[msg.sender][_tokenAddress].pendingGains = PendingReward(msg.sender);\n            users[msg.sender][_tokenAddress].period = stakingPeriod;\n            users[msg.sender][_tokenAddress].rate = tokens[_tokenAddress].rate; // rate for stakers will be fixed at time of staking\n        }\n        else\n            users[msg.sender][_tokenAddress].pendingGains = PendingYield(_tokenAddress, msg.sender);\n            \n        users[msg.sender][_tokenAddress].activeDeposit = _amount;\n        users[msg.sender][_tokenAddress].totalDeposits = users[msg.sender][_tokenAddress].totalDeposits.add(_amount);\n        users[msg.sender][_tokenAddress].startTime = now;\n        users[msg.sender][_tokenAddress].lastClaimedDate = now;\n        \n    }\n\n    // ------------------------------------------------------------------------\n    // Internal function to add to existing deposit\n    // ------------------------------------------------------------------------        \n    function _addToExisting(address _tokenAddress, uint256 _amount) internal{\n        require(tokens[_tokenAddress].exists, \"Token doesn't exist\");\n        // require(users[msg.sender][_tokenAddress].running, \"no running farming/stake\");\n        require(users[msg.sender][_tokenAddress].activeDeposit > 0, \"no running farming/stake\");\n        // update farming stats\n            // check if we have any pending reward/yield, add it to pendingGains variable\n            if(_tokenAddress == address(bree)){\n                users[msg.sender][_tokenAddress].pendingGains = PendingReward(msg.sender);\n                users[msg.sender][_tokenAddress].period = stakingPeriod;\n                users[msg.sender][_tokenAddress].rate = tokens[_tokenAddress].rate; // rate of only staking will be updated when more is added to stake\n            }\n            else\n                users[msg.sender][_tokenAddress].pendingGains = PendingYield(_tokenAddress, msg.sender);\n            // update current deposited amount \n            users[msg.sender][_tokenAddress].activeDeposit = users[msg.sender][_tokenAddress].activeDeposit.add(_amount);\n            // update total deposits till today\n            users[msg.sender][_tokenAddress].totalDeposits = users[msg.sender][_tokenAddress].totalDeposits.add(_amount);\n            // update new deposit start time -- new stake/farming will begin from this time onwards\n            users[msg.sender][_tokenAddress].startTime = now;\n            // reset last claimed figure as well -- new stake/farming will begin from this time onwards\n            users[msg.sender][_tokenAddress].lastClaimedDate = now;\n            \n            \n    }\n\n    // ------------------------------------------------------------------------\n    // Internal function to add token\n    // ------------------------------------------------------------------------     \n    function _addToken(address _tokenAddress, uint256 _rate) internal{\n        require(!tokens[_tokenAddress].exists, \"token already exists\");\n        \n        tokens[_tokenAddress] = Tokens({\n            exists: true,\n            rate: _rate\n        });\n        \n        TokensAddresses.push(_tokenAddress);\n        emit TokenAdded(_tokenAddress, _rate);\n    }\n    \n    \n}\n\n\n",
  "sourcePath": "/home/nasir/Desktop/Working/Stack-Distribution/contracts/BREE_STAKE_FARM.sol",
  "compiler": {
    "name": "solc",
    "version": "0.5.16+commit.9c3226ce.Emscripten.clang"
  },
  "schemaVersion": "3.1.0",
  "updatedAt": "2020-09-13T11:26:03.719Z",
  "devdoc": {
    "methods": {}
  },
  "userdoc": {
    "methods": {}
  }
}