{
  "contractName": "StackToken",
  "abi": [
    {
      "inputs": [
        {
          "internalType": "address",
          "name": "_token",
          "type": "address"
        },
        {
          "internalType": "address",
          "name": "_stakeFarm",
          "type": "address"
        },
        {
          "internalType": "address",
          "name": "_owner",
          "type": "address"
        }
      ],
      "payable": false,
      "stateMutability": "nonpayable",
      "type": "constructor"
    },
    {
      "constant": false,
      "inputs": [
        {
          "internalType": "uint256",
          "name": "_amount",
          "type": "uint256"
        }
      ],
      "name": "stackingPool",
      "outputs": [
        {
          "internalType": "bool",
          "name": "",
          "type": "bool"
        }
      ],
      "payable": false,
      "stateMutability": "nonpayable",
      "type": "function"
    },
    {
      "constant": false,
      "inputs": [],
      "name": "callUnstake",
      "outputs": [],
      "payable": false,
      "stateMutability": "nonpayable",
      "type": "function"
    }
  ],
  "bytecode": "0x6080604052600160035534801561001557600080fd5b50604051610b8c380380610b8c8339818101604052606081101561003857600080fd5b81019080805190602001909291908051906020019092919080519060200190929190505050826000806101000a81548173ffffffffffffffffffffffffffffffffffffffff021916908373ffffffffffffffffffffffffffffffffffffffff16021790555080600260006101000a81548173ffffffffffffffffffffffffffffffffffffffff021916908373ffffffffffffffffffffffffffffffffffffffff16021790555081600160006101000a81548173ffffffffffffffffffffffffffffffffffffffff021916908373ffffffffffffffffffffffffffffffffffffffff160217905550505050610a5b806101316000396000f3fe608060405234801561001057600080fd5b50600436106100365760003560e01c806304c237901461003b578063cb54a43714610081575b600080fd5b6100676004803603602081101561005157600080fd5b810190808035906020019092919050505061008b565b604051808215151515815260200191505060405180910390f35b610089610583565b005b6000816000809054906101000a900473ffffffffffffffffffffffffffffffffffffffff1673ffffffffffffffffffffffffffffffffffffffff166370a08231336040518263ffffffff1660e01b8152600401808273ffffffffffffffffffffffffffffffffffffffff1673ffffffffffffffffffffffffffffffffffffffff16815260200191505060206040518083038186803b15801561012c57600080fd5b505afa158015610140573d6000803e3d6000fd5b505050506040513d602081101561015657600080fd5b810190808051906020019092919050505010156101db576040517f08c379a000000000000000000000000000000000000000000000000000000000815260040180806020018281038252601d8152602001807f596f75206861766520696e73756666696369656e742042616c616e636500000081525060200191505060405180910390fd5b816000809054906101000a900473ffffffffffffffffffffffffffffffffffffffff1673ffffffffffffffffffffffffffffffffffffffff1663dd62ed3e33306040518363ffffffff1660e01b8152600401808373ffffffffffffffffffffffffffffffffffffffff1673ffffffffffffffffffffffffffffffffffffffff1681526020018273ffffffffffffffffffffffffffffffffffffffff1673ffffffffffffffffffffffffffffffffffffffff1681526020019250505060206040518083038186803b1580156102ae57600080fd5b505afa1580156102c2573d6000803e3d6000fd5b505050506040513d60208110156102d857600080fd5b81019080805190602001909291905050501015610340576040517f08c379a0000000000000000000000000000000000000000000000000000000008152600401808060200182810382526025815260200180610a026025913960400191505060405180910390fd5b6000809054906101000a900473ffffffffffffffffffffffffffffffffffffffff1673ffffffffffffffffffffffffffffffffffffffff166323b872dd3330856040518463ffffffff1660e01b8152600401808473ffffffffffffffffffffffffffffffffffffffff1673ffffffffffffffffffffffffffffffffffffffff1681526020018373ffffffffffffffffffffffffffffffffffffffff1673ffffffffffffffffffffffffffffffffffffffff1681526020018281526020019350505050602060405180830381600087803b15801561041c57600080fd5b505af1158015610430573d6000803e3d6000fd5b505050506040513d602081101561044657600080fd5b81019080805190602001909291905050505060006005600060035481526020019081526020016000209050681b1ae4d6e2ef5000008160040154106104ae576003600081548092919060010191905055504281600301819055506104ad81600401546108af565b5b6003548160000181905550828160010160003373ffffffffffffffffffffffffffffffffffffffff1673ffffffffffffffffffffffffffffffffffffffff16815260200190815260200160002081905550828160040160008282540192505081905550806002013390806001815401808255809150509060018203906000526020600020016000909192909190916101000a81548173ffffffffffffffffffffffffffffffffffffffff021916908373ffffffffffffffffffffffffffffffffffffffff160217905550506001915050919050565b60008060009054906101000a900473ffffffffffffffffffffffffffffffffffffffff1673ffffffffffffffffffffffffffffffffffffffff166370a08231306040518263ffffffff1660e01b8152600401808273ffffffffffffffffffffffffffffffffffffffff1673ffffffffffffffffffffffffffffffffffffffff16815260200191505060206040518083038186803b15801561062357600080fd5b505afa158015610637573d6000803e3d6000fd5b505050506040513d602081101561064d57600080fd5b81019080805190602001909291905050509050600160009054906101000a900473ffffffffffffffffffffffffffffffffffffffff1673ffffffffffffffffffffffffffffffffffffffff1663bd7b21946040518163ffffffff1660e01b8152600401600060405180830381600087803b1580156106ca57600080fd5b505af11580156106de573d6000803e3d6000fd5b50505050600160009054906101000a900473ffffffffffffffffffffffffffffffffffffffff1673ffffffffffffffffffffffffffffffffffffffff166379372f9a6040518163ffffffff1660e01b8152600401600060405180830381600087803b15801561074c57600080fd5b505af1158015610760573d6000803e3d6000fd5b5050505060008060009054906101000a900473ffffffffffffffffffffffffffffffffffffffff1673ffffffffffffffffffffffffffffffffffffffff166370a08231306040518263ffffffff1660e01b8152600401808273ffffffffffffffffffffffffffffffffffffffff1673ffffffffffffffffffffffffffffffffffffffff16815260200191505060206040518083038186803b15801561080457600080fd5b505afa158015610818573d6000803e3d6000fd5b505050506040513d602081101561082e57600080fd5b81019080805190602001909291905050509050600460008154809291906001019190505550600061086883836109c390919063ffffffff16565b90506000600560006004548152602001908152602001600020905060018160060160006101000a81548160ff02191690831515021790555081816007018190555050505050565b3073ffffffffffffffffffffffffffffffffffffffff163373ffffffffffffffffffffffffffffffffffffffff1614610933576040517f08c379a00000000000000000000000000000000000000000000000000000000081526004018080602001828103825260278152602001806109db6027913960400191505060405180910390fd5b600160009054906101000a900473ffffffffffffffffffffffffffffffffffffffff1673ffffffffffffffffffffffffffffffffffffffff1663c1672177826040518263ffffffff1660e01b815260040180828152602001915050600060405180830381600087803b1580156109a857600080fd5b505af11580156109bc573d6000803e3d6000fd5b5050505050565b6000828211156109cf57fe5b81830390509291505056fe4f6e6c7920436f6e747261637420686176652061636365737320746f2063616c6c20737461636b596f7520617265206e6f7420617070726f766520746f6b656e20746f20436f6e7472616374a265627a7a72315820e7fd2840938a5574e62d2bbc14a22dd573df28bbd01e4adb675e1fd1703a8b5664736f6c63430005100032",
  "source": "pragma solidity ^0.5.0;\nimport \"./ERC20Interface.sol\";\nimport \"./BREE_STAKE_FARM.sol\";\nimport \"./SafeMath.sol\";\n\ncontract StackToken {\n    using SafeMath for uint256;\n    ERC20Interface token;\n    BREE_STAKE_FARM stakeFarm;\n    address owner;\n    uint256 poolsID = 1;\n    uint256 unstakId;\n\n    struct Pool {\n        uint256 poolId;\n        mapping(address => uint256) userBalance; //staking Balance\n        address[] poolUsers; // User participants\n        uint256 stakeTime; // stake start time\n        uint256 poolBalance; // pool stackBalance\n        uint256 unstakeTime; // Unstake token Time\n        bool unstakeStatus; // Status of unstake\n        uint256 unstakeBalance; // Reward + unstake\n    }\n    // Token :  0x30c6eb233d21b66c98860eee5e9f162d34fe48cb\n\n    // STAKE Farm:  0xfc8a588ebcec3689850614194be6183411493898\n    // Stack Pool :0x0dc75df1d0fdcd4ee5f31697ae3eab9c639196c3\n    // Owner : 0x9c830FFc3e4E7B23Bf122996616fb9054134f6E2\n    mapping(uint256 => Pool) pools;\n    mapping(address => uint256) balance;\n\n    constructor(\n        address _token,\n        address _stakeFarm,\n        address _owner\n    ) public {\n        token = ERC20Interface(_token);\n        owner = _owner;\n        stakeFarm = BREE_STAKE_FARM(_stakeFarm);\n    }\n\n    function stackingPool(uint256 _amount) public returns (bool) {\n        require(\n            token.balanceOf(msg.sender) >= _amount,\n            \"You have insufficient Balance\"\n        );\n        require(\n            token.allowance(msg.sender, address(this)) >= _amount,\n            \"You are not approve token to Contract\"\n        );\n        token.transferFrom(msg.sender, address(this), _amount);\n\n        Pool storage pool = pools[poolsID];\n\n        if (pool.poolBalance >= 500 ether) {\n            poolsID++;\n            pool.stakeTime = now;\n            stakingCall(pool.poolBalance);\n        }\n        pool.poolId = poolsID;\n        pool.userBalance[msg.sender] = _amount;\n        pool.poolBalance += _amount;\n        pool.poolUsers.push(msg.sender);\n\n        return true;\n    }\n\n    function stakingCall(uint256 _amount) internal {\n        require(\n            msg.sender == address(this),\n            \"Only Contract have access to call stack\"\n        );\n        stakeFarm.AddToStake(_amount);\n    }\n\n    function callUnstake() public {\n        // Called Unstake\n        uint256 balanceBefore = token.balanceOf(address(this));\n        stakeFarm.ClaimStakedTokens();\n        stakeFarm.ClaimReward();\n        uint256 balanceAfter = token.balanceOf(address(this));\n        unstakId++;\n        uint256 totalToken = balanceAfter.sub(balanceBefore);\n\n        Pool storage pool = pools[unstakId];\n        pool.unstakeStatus = true;\n        pool.unstakeBalance = totalToken;\n    }\n\n    function rewardDistribute(uint256 _unstakeID) internal {\n        // Transfer tokens to all contributores\n        require(\n            msg.sender == address(this),\n            \"Only Contract have access to call stack\"\n        );\n        Pool storage pool = pools[_unstakeID];\n        uint256 perRewards = pool.unstakeBalance.div(pool.poolBalance);\n        uint8 i;\n        for (i = 0; i < pool.poolUsers.length; i++) {\n            address userAddress = pool.poolUsers[i];\n            uint256 balanceTo = pool.userBalance[userAddress].mul(perRewards);\n            token.transfer(userAddress, balanceTo);\n        }\n        pool.unstakeStatus = true;\n    }\n}\n",
  "sourcePath": "/home/nasir/Desktop/Working/Stack-Distribution/contracts/StackToken.sol",
  "compiler": {
    "name": "solc",
    "version": "0.5.16+commit.9c3226ce.Emscripten.clang"
  },
  "schemaVersion": "3.1.0",
  "updatedAt": "2020-09-13T11:26:03.744Z",
  "devdoc": {
    "methods": {}
  },
  "userdoc": {
    "methods": {}
  }
}